{
  "contracts/SchusterFWEB3Faucet.sol": {
    "SchusterFWEB3Faucet": {
      "abi": [
        {
          "inputs": [
            {
              "internalType": "contract IERC20",
              "name": "_token",
              "type": "address"
            },
            {
              "internalType": "uint256",
              "name": "_faucetDripBase",
              "type": "uint256"
            },
            {
              "internalType": "uint256",
              "name": "_faucetDripDecimal",
              "type": "uint256"
            }
          ],
          "stateMutability": "nonpayable",
          "type": "constructor"
        },
        {
          "anonymous": false,
          "inputs": [
            {
              "indexed": false,
              "internalType": "address[]",
              "name": "_users",
              "type": "address[]"
            }
          ],
          "name": "BulkExclusion",
          "type": "event"
        },
        {
          "anonymous": false,
          "inputs": [
            {
              "indexed": false,
              "internalType": "uint256",
              "name": "_dripAmount",
              "type": "uint256"
            }
          ],
          "name": "DripAmountSet",
          "type": "event"
        },
        {
          "anonymous": false,
          "inputs": [
            {
              "indexed": true,
              "internalType": "address",
              "name": "_user",
              "type": "address"
            },
            {
              "indexed": true,
              "internalType": "address",
              "name": "_runner",
              "type": "address"
            }
          ],
          "name": "FaucetUsed",
          "type": "event"
        },
        {
          "anonymous": false,
          "inputs": [
            {
              "indexed": true,
              "internalType": "address",
              "name": "previousOwner",
              "type": "address"
            },
            {
              "indexed": true,
              "internalType": "address",
              "name": "newOwner",
              "type": "address"
            }
          ],
          "name": "OwnershipTransferred",
          "type": "event"
        },
        {
          "anonymous": false,
          "inputs": [
            {
              "indexed": true,
              "internalType": "address",
              "name": "_runner",
              "type": "address"
            }
          ],
          "name": "RunnerAdded",
          "type": "event"
        },
        {
          "anonymous": false,
          "inputs": [
            {
              "indexed": true,
              "internalType": "address",
              "name": "_runner",
              "type": "address"
            }
          ],
          "name": "RunnerRemoved",
          "type": "event"
        },
        {
          "inputs": [
            {
              "internalType": "address[]",
              "name": "_users",
              "type": "address[]"
            }
          ],
          "name": "bulkExcludeUsers",
          "outputs": [],
          "stateMutability": "nonpayable",
          "type": "function"
        },
        {
          "inputs": [
            {
              "internalType": "address",
              "name": "_runner",
              "type": "address"
            }
          ],
          "name": "checkVerified",
          "outputs": [
            {
              "internalType": "bool",
              "name": "",
              "type": "bool"
            }
          ],
          "stateMutability": "view",
          "type": "function"
        },
        {
          "inputs": [
            {
              "internalType": "address payable",
              "name": "_user",
              "type": "address"
            }
          ],
          "name": "faucet",
          "outputs": [],
          "stateMutability": "nonpayable",
          "type": "function"
        },
        {
          "inputs": [],
          "name": "getDripAmount",
          "outputs": [
            {
              "internalType": "uint256",
              "name": "",
              "type": "uint256"
            }
          ],
          "stateMutability": "view",
          "type": "function"
        },
        {
          "inputs": [
            {
              "internalType": "address",
              "name": "_user",
              "type": "address"
            }
          ],
          "name": "hasUsedFaucet",
          "outputs": [
            {
              "internalType": "bool",
              "name": "",
              "type": "bool"
            }
          ],
          "stateMutability": "view",
          "type": "function"
        },
        {
          "inputs": [],
          "name": "owner",
          "outputs": [
            {
              "internalType": "address",
              "name": "",
              "type": "address"
            }
          ],
          "stateMutability": "view",
          "type": "function"
        },
        {
          "inputs": [
            {
              "internalType": "address",
              "name": "_runner",
              "type": "address"
            }
          ],
          "name": "removeRunner",
          "outputs": [],
          "stateMutability": "nonpayable",
          "type": "function"
        },
        {
          "inputs": [],
          "name": "renounceOwnership",
          "outputs": [],
          "stateMutability": "nonpayable",
          "type": "function"
        },
        {
          "inputs": [
            {
              "internalType": "uint256",
              "name": "_faucetDripBase",
              "type": "uint256"
            },
            {
              "internalType": "uint256",
              "name": "_faucetDripDecimal",
              "type": "uint256"
            }
          ],
          "name": "setDripAmount",
          "outputs": [],
          "stateMutability": "nonpayable",
          "type": "function"
        },
        {
          "inputs": [
            {
              "internalType": "address",
              "name": "newOwner",
              "type": "address"
            }
          ],
          "name": "transferOwnership",
          "outputs": [],
          "stateMutability": "nonpayable",
          "type": "function"
        },
        {
          "inputs": [
            {
              "internalType": "address",
              "name": "_runner",
              "type": "address"
            }
          ],
          "name": "verifyRunner",
          "outputs": [],
          "stateMutability": "nonpayable",
          "type": "function"
        }
      ],
      "evm": {
        "bytecode": {
          "linkReferences": {},
          "object": "60806040523480156200001157600080fd5b5060405162001f1f38038062001f1f8339818101604052810190620000379190620001f8565b620000576200004b620000fe60201b60201c565b6200010660201b60201c565b82600160006101000a81548173ffffffffffffffffffffffffffffffffffffffff021916908373ffffffffffffffffffffffffffffffffffffffff16021790555080600a620000a79190620002d7565b82620000b4919062000414565b6002819055507fd9a0cf9e55eb1762f95c0cc3403bad112fb1204165d68b31084c72ffb5306720600254604051620000ed91906200025f565b60405180910390a150505062000537565b600033905090565b60008060009054906101000a900473ffffffffffffffffffffffffffffffffffffffff169050816000806101000a81548173ffffffffffffffffffffffffffffffffffffffff021916908373ffffffffffffffffffffffffffffffffffffffff1602179055508173ffffffffffffffffffffffffffffffffffffffff168173ffffffffffffffffffffffffffffffffffffffff167f8be0079c531659141344cd1fd0a4f28419497f9722a3daafe3b4186f6b6457e060405160405180910390a35050565b600081519050620001db8162000503565b92915050565b600081519050620001f2816200051d565b92915050565b6000806000606084860312156200020e57600080fd5b60006200021e86828701620001ca565b93505060206200023186828701620001e1565b92505060406200024486828701620001e1565b9150509250925092565b6200025981620004bd565b82525050565b60006020820190506200027660008301846200024e565b92915050565b6000808291508390505b6001851115620002ce57808604811115620002a657620002a5620004c7565b5b6001851615620002b65780820291505b8081029050620002c685620004f6565b945062000286565b94509492505050565b6000620002e482620004bd565b9150620002f183620004bd565b9250620003207fffffffffffffffffffffffffffffffffffffffffffffffffffffffffffffffff848462000328565b905092915050565b6000826200033a57600190506200040d565b816200034a57600090506200040d565b81600181146200036357600281146200036e57620003a4565b60019150506200040d565b60ff841115620003835762000382620004c7565b5b8360020a9150848211156200039d576200039c620004c7565b5b506200040d565b5060208310610133831016604e8410600b8410161715620003de5782820a905083811115620003d857620003d7620004c7565b5b6200040d565b620003ed84848460016200027c565b92509050818404811115620004075762000406620004c7565b5b81810290505b9392505050565b60006200042182620004bd565b91506200042e83620004bd565b9250817fffffffffffffffffffffffffffffffffffffffffffffffffffffffffffffffff04831182151516156200046a5762000469620004c7565b5b828202905092915050565b600062000482826200049d565b9050919050565b6000620004968262000475565b9050919050565b600073ffffffffffffffffffffffffffffffffffffffff82169050919050565b6000819050919050565b7f4e487b7100000000000000000000000000000000000000000000000000000000600052601160045260246000fd5b60008160011c9050919050565b6200050e8162000489565b81146200051a57600080fd5b50565b6200052881620004bd565b81146200053457600080fd5b50565b6119d880620005476000396000f3fe608060405234801561001057600080fd5b50600436106100a95760003560e01c8063818aa4df11610071578063818aa4df1461013e5780638da5cb5b1461015a578063994f120f14610178578063b86d1d63146101a8578063b91d82ba146101c4578063f2fde38b146101e0576100a9565b806353ffc4dd146100ae5780636c40bc15146100ca5780636cc8c590146100e6578063715018a614610116578063817204a414610120575b600080fd5b6100c860048036038101906100c39190610fa8565b6101fc565b005b6100e460048036038101906100df919061103b565b61036a565b005b61010060048036038101906100fb9190610f56565b610441565b60405161010d91906112b6565b60405180910390f35b61011e610497565b005b61012861054e565b60405161013591906113d1565b60405180910390f35b61015860048036038101906101539190610f56565b610558565b005b6101626106fe565b60405161016f9190611250565b60405180910390f35b610192600480360381019061018d9190610f56565b610727565b60405161019f91906112b6565b60405180910390f35b6101c260048036038101906101bd9190610f7f565b61077d565b005b6101de60048036038101906101d99190610f56565b610aec565b005b6101fa60048036038101906101f59190610f56565b610c93565b005b610204610d8b565b73ffffffffffffffffffffffffffffffffffffffff166102226106fe565b73ffffffffffffffffffffffffffffffffffffffff1614610278576040517f08c379a000000000000000000000000000000000000000000000000000000000815260040161026f90611371565b60405180910390fd5b60005b815181101561032f576001600360008484815181106102c3577f4e487b7100000000000000000000000000000000000000000000000000000000600052603260045260246000fd5b602002602001015173ffffffffffffffffffffffffffffffffffffffff1673ffffffffffffffffffffffffffffffffffffffff16815260200190815260200160002060006101000a81548160ff021916908315150217905550808061032790611713565b91505061027b565b507fb28a1e012b51d89c4a8e49d849cdf5c6a48cd7cf9d30f56feb2b08af455b12618160405161035f9190611294565b60405180910390a150565b610372610d8b565b73ffffffffffffffffffffffffffffffffffffffff166103906106fe565b73ffffffffffffffffffffffffffffffffffffffff16146103e6576040517f08c379a00000000000000000000000000000000000000000000000000000000081526004016103dd90611371565b60405180910390fd5b80600a6103f391906114da565b826103fe91906115f8565b6002819055507fd9a0cf9e55eb1762f95c0cc3403bad112fb1204165d68b31084c72ffb530672060025460405161043591906113d1565b60405180910390a15050565b6000600460008373ffffffffffffffffffffffffffffffffffffffff1673ffffffffffffffffffffffffffffffffffffffff16815260200190815260200160002060009054906101000a900460ff169050919050565b61049f610d8b565b73ffffffffffffffffffffffffffffffffffffffff166104bd6106fe565b73ffffffffffffffffffffffffffffffffffffffff1614610513576040517f08c379a000000000000000000000000000000000000000000000000000000000815260040161050a90611371565b60405180910390fd5b6040517f08c379a0000000000000000000000000000000000000000000000000000000008152600401610545906113b1565b60405180910390fd5b6000600254905090565b610560610d8b565b73ffffffffffffffffffffffffffffffffffffffff1661057e6106fe565b73ffffffffffffffffffffffffffffffffffffffff16146105d4576040517f08c379a00000000000000000000000000000000000000000000000000000000081526004016105cb90611371565b60405180910390fd5b600460008273ffffffffffffffffffffffffffffffffffffffff1673ffffffffffffffffffffffffffffffffffffffff16815260200190815260200160002060009054906101000a900460ff16610660576040517f08c379a0000000000000000000000000000000000000000000000000000000008152600401610657906112d1565b60405180910390fd5b6000600460008373ffffffffffffffffffffffffffffffffffffffff1673ffffffffffffffffffffffffffffffffffffffff16815260200190815260200160002060006101000a81548160ff0219169083151502179055508073ffffffffffffffffffffffffffffffffffffffff167fb50d2f20ab76e82fe675d3130121dd7b78ea1eb3a9c0e15075cd423e0671d65d60405160405180910390a250565b60008060009054906101000a900473ffffffffffffffffffffffffffffffffffffffff16905090565b6000600360008373ffffffffffffffffffffffffffffffffffffffff1673ffffffffffffffffffffffffffffffffffffffff16815260200190815260200160002060009054906101000a900460ff169050919050565b600460003373ffffffffffffffffffffffffffffffffffffffff1673ffffffffffffffffffffffffffffffffffffffff16815260200190815260200160002060009054906101000a900460ff16610809576040517f08c379a000000000000000000000000000000000000000000000000000000000815260040161080090611351565b60405180910390fd5b600360008273ffffffffffffffffffffffffffffffffffffffff1673ffffffffffffffffffffffffffffffffffffffff16815260200190815260200160002060009054906101000a900460ff1615610896576040517f08c379a000000000000000000000000000000000000000000000000000000000815260040161088d90611391565b60405180910390fd5b600254600160009054906101000a900473ffffffffffffffffffffffffffffffffffffffff1673ffffffffffffffffffffffffffffffffffffffff166370a08231306040518263ffffffff1660e01b81526004016108f49190611250565b60206040518083038186803b15801561090c57600080fd5b505afa158015610920573d6000803e3d6000fd5b505050506040513d601f19601f820116820180604052508101906109449190611012565b1015610985576040517f08c379a000000000000000000000000000000000000000000000000000000000815260040161097c90611331565b60405180910390fd5b600160009054906101000a900473ffffffffffffffffffffffffffffffffffffffff1673ffffffffffffffffffffffffffffffffffffffff1663a9059cbb826002546040518363ffffffff1660e01b81526004016109e492919061126b565b602060405180830381600087803b1580156109fe57600080fd5b505af1158015610a12573d6000803e3d6000fd5b505050506040513d601f19601f82011682018060405250810190610a369190610fe9565b506001600360008373ffffffffffffffffffffffffffffffffffffffff1673ffffffffffffffffffffffffffffffffffffffff16815260200190815260200160002060006101000a81548160ff0219169083151502179055503373ffffffffffffffffffffffffffffffffffffffff168173ffffffffffffffffffffffffffffffffffffffff167f2258d110ecf73a35e930244b87a40cc209eb766ded6f5f53210167e9bd56a36e60405160405180910390a350565b610af4610d8b565b73ffffffffffffffffffffffffffffffffffffffff16610b126106fe565b73ffffffffffffffffffffffffffffffffffffffff1614610b68576040517f08c379a0000000000000000000000000000000000000000000000000000000008152600401610b5f90611371565b60405180910390fd5b600460008273ffffffffffffffffffffffffffffffffffffffff1673ffffffffffffffffffffffffffffffffffffffff16815260200190815260200160002060009054906101000a900460ff1615610bf5576040517f08c379a0000000000000000000000000000000000000000000000000000000008152600401610bec906112f1565b60405180910390fd5b6001600460008373ffffffffffffffffffffffffffffffffffffffff1673ffffffffffffffffffffffffffffffffffffffff16815260200190815260200160002060006101000a81548160ff0219169083151502179055508073ffffffffffffffffffffffffffffffffffffffff167f4d9d0977667b1db25ee3cf7bf49a7da1dc6e1ad3193cc78270ac0b5706f47f5a60405160405180910390a250565b610c9b610d8b565b73ffffffffffffffffffffffffffffffffffffffff16610cb96106fe565b73ffffffffffffffffffffffffffffffffffffffff1614610d0f576040517f08c379a0000000000000000000000000000000000000000000000000000000008152600401610d0690611371565b60405180910390fd5b600073ffffffffffffffffffffffffffffffffffffffff168173ffffffffffffffffffffffffffffffffffffffff161415610d7f576040517f08c379a0000000000000000000000000000000000000000000000000000000008152600401610d7690611311565b60405180910390fd5b610d8881610d93565b50565b600033905090565b60008060009054906101000a900473ffffffffffffffffffffffffffffffffffffffff169050816000806101000a81548173ffffffffffffffffffffffffffffffffffffffff021916908373ffffffffffffffffffffffffffffffffffffffff1602179055508173ffffffffffffffffffffffffffffffffffffffff168173ffffffffffffffffffffffffffffffffffffffff167f8be0079c531659141344cd1fd0a4f28419497f9722a3daafe3b4186f6b6457e060405160405180910390a35050565b6000610e6a610e6584611411565b6113ec565b90508083825260208201905082856020860282011115610e8957600080fd5b60005b85811015610eb95781610e9f8882610ec3565b845260208401935060208301925050600181019050610e8c565b5050509392505050565b600081359050610ed281611946565b92915050565b600081359050610ee78161195d565b92915050565b600082601f830112610efe57600080fd5b8135610f0e848260208601610e57565b91505092915050565b600081519050610f2681611974565b92915050565b600081359050610f3b8161198b565b92915050565b600081519050610f508161198b565b92915050565b600060208284031215610f6857600080fd5b6000610f7684828501610ec3565b91505092915050565b600060208284031215610f9157600080fd5b6000610f9f84828501610ed8565b91505092915050565b600060208284031215610fba57600080fd5b600082013567ffffffffffffffff811115610fd457600080fd5b610fe084828501610eed565b91505092915050565b600060208284031215610ffb57600080fd5b600061100984828501610f17565b91505092915050565b60006020828403121561102457600080fd5b600061103284828501610f41565b91505092915050565b6000806040838503121561104e57600080fd5b600061105c85828601610f2c565b925050602061106d85828601610f2c565b9150509250929050565b6000611083838361109e565b60208301905092915050565b611098816116ac565b82525050565b6110a781611652565b82525050565b6110b681611652565b82525050565b60006110c78261144d565b6110d18185611465565b93506110dc8361143d565b8060005b8381101561110d5781516110f48882611077565b97506110ff83611458565b9250506001810190506110e0565b5085935050505092915050565b61112381611676565b82525050565b6000611136601383611476565b9150611141826117d8565b602082019050919050565b6000611159601783611476565b915061116482611801565b602082019050919050565b600061117c602683611476565b91506111878261182a565b604082019050919050565b600061119f601e83611476565b91506111aa82611879565b602082019050919050565b60006111c2601a83611476565b91506111cd826118a2565b602082019050919050565b60006111e5602083611476565b91506111f0826118cb565b602082019050919050565b6000611208601883611476565b9150611213826118f4565b602082019050919050565b600061122b601983611476565b91506112368261191d565b602082019050919050565b61124a816116a2565b82525050565b600060208201905061126560008301846110ad565b92915050565b6000604082019050611280600083018561108f565b61128d6020830184611241565b9392505050565b600060208201905081810360008301526112ae81846110bc565b905092915050565b60006020820190506112cb600083018461111a565b92915050565b600060208201905081810360008301526112ea81611129565b9050919050565b6000602082019050818103600083015261130a8161114c565b9050919050565b6000602082019050818103600083015261132a8161116f565b9050919050565b6000602082019050818103600083015261134a81611192565b9050919050565b6000602082019050818103600083015261136a816111b5565b9050919050565b6000602082019050818103600083015261138a816111d8565b9050919050565b600060208201905081810360008301526113aa816111fb565b9050919050565b600060208201905081810360008301526113ca8161121e565b9050919050565b60006020820190506113e66000830184611241565b92915050565b60006113f6611407565b905061140282826116e2565b919050565b6000604051905090565b600067ffffffffffffffff82111561142c5761142b61178b565b5b602082029050602081019050919050565b6000819050602082019050919050565b600081519050919050565b6000602082019050919050565b600082825260208201905092915050565b600082825260208201905092915050565b6000808291508390505b60018511156114d1578086048111156114ad576114ac61175c565b5b60018516156114bc5780820291505b80810290506114ca856117cb565b9450611491565b94509492505050565b60006114e5826116a2565b91506114f0836116a2565b925061151d7fffffffffffffffffffffffffffffffffffffffffffffffffffffffffffffffff8484611525565b905092915050565b60008261153557600190506115f1565b8161154357600090506115f1565b8160018114611559576002811461156357611592565b60019150506115f1565b60ff8411156115755761157461175c565b5b8360020a91508482111561158c5761158b61175c565b5b506115f1565b5060208310610133831016604e8410600b84101617156115c75782820a9050838111156115c2576115c161175c565b5b6115f1565b6115d48484846001611487565b925090508184048111156115eb576115ea61175c565b5b81810290505b9392505050565b6000611603826116a2565b915061160e836116a2565b9250817fffffffffffffffffffffffffffffffffffffffffffffffffffffffffffffffff04831182151516156116475761164661175c565b5b828202905092915050565b600061165d82611682565b9050919050565b600061166f82611682565b9050919050565b60008115159050919050565b600073ffffffffffffffffffffffffffffffffffffffff82169050919050565b6000819050919050565b60006116b7826116be565b9050919050565b60006116c9826116d0565b9050919050565b60006116db82611682565b9050919050565b6116eb826117ba565b810181811067ffffffffffffffff8211171561170a5761170961178b565b5b80604052505050565b600061171e826116a2565b91507fffffffffffffffffffffffffffffffffffffffffffffffffffffffffffffffff8214156117515761175061175c565b5b600182019050919050565b7f4e487b7100000000000000000000000000000000000000000000000000000000600052601160045260246000fd5b7f4e487b7100000000000000000000000000000000000000000000000000000000600052604160045260246000fd5b6000601f19601f8301169050919050565b60008160011c9050919050565b7f52756e6e6572204e6f7420566572696669656400000000000000000000000000600082015250565b7f52756e6e657220416c7265616479205665726966696564000000000000000000600082015250565b7f4f776e61626c653a206e6577206f776e657220697320746865207a65726f206160008201527f6464726573730000000000000000000000000000000000000000000000000000602082015250565b7f4e6f2066617563657420746f6b656e7320746f20646973747269627574650000600082015250565b7f4e6f7420566572696669656420746f2052756e20466175636574000000000000600082015250565b7f4f776e61626c653a2063616c6c6572206973206e6f7420746865206f776e6572600082015250565b7f5573657220616c72656164792075736564206661756365740000000000000000600082015250565b7f43616e6e6f742072656e6f756e6365206f776e65727368697000000000000000600082015250565b61194f81611652565b811461195a57600080fd5b50565b61196681611664565b811461197157600080fd5b50565b61197d81611676565b811461198857600080fd5b50565b611994816116a2565b811461199f57600080fd5b5056fea2646970667358221220373c9f76311cf828425275d15cc47de7bcdb67dec881d5b742e854e4925e229264736f6c63430008040033",
          "opcodes": "PUSH1 0x80 PUSH1 0x40 MSTORE CALLVALUE DUP1 ISZERO PUSH3 0x11 JUMPI PUSH1 0x0 DUP1 REVERT JUMPDEST POP PUSH1 0x40 MLOAD PUSH3 0x1F1F CODESIZE SUB DUP1 PUSH3 0x1F1F DUP4 CODECOPY DUP2 DUP2 ADD PUSH1 0x40 MSTORE DUP2 ADD SWAP1 PUSH3 0x37 SWAP2 SWAP1 PUSH3 0x1F8 JUMP JUMPDEST PUSH3 0x57 PUSH3 0x4B PUSH3 0xFE PUSH1 0x20 SHL PUSH1 0x20 SHR JUMP JUMPDEST PUSH3 0x106 PUSH1 0x20 SHL PUSH1 0x20 SHR JUMP JUMPDEST DUP3 PUSH1 0x1 PUSH1 0x0 PUSH2 0x100 EXP DUP2 SLOAD DUP2 PUSH20 0xFFFFFFFFFFFFFFFFFFFFFFFFFFFFFFFFFFFFFFFF MUL NOT AND SWAP1 DUP4 PUSH20 0xFFFFFFFFFFFFFFFFFFFFFFFFFFFFFFFFFFFFFFFF AND MUL OR SWAP1 SSTORE POP DUP1 PUSH1 0xA PUSH3 0xA7 SWAP2 SWAP1 PUSH3 0x2D7 JUMP JUMPDEST DUP3 PUSH3 0xB4 SWAP2 SWAP1 PUSH3 0x414 JUMP JUMPDEST PUSH1 0x2 DUP2 SWAP1 SSTORE POP PUSH32 0xD9A0CF9E55EB1762F95C0CC3403BAD112FB1204165D68B31084C72FFB5306720 PUSH1 0x2 SLOAD PUSH1 0x40 MLOAD PUSH3 0xED SWAP2 SWAP1 PUSH3 0x25F JUMP JUMPDEST PUSH1 0x40 MLOAD DUP1 SWAP2 SUB SWAP1 LOG1 POP POP POP PUSH3 0x537 JUMP JUMPDEST PUSH1 0x0 CALLER SWAP1 POP SWAP1 JUMP JUMPDEST PUSH1 0x0 DUP1 PUSH1 0x0 SWAP1 SLOAD SWAP1 PUSH2 0x100 EXP SWAP1 DIV PUSH20 0xFFFFFFFFFFFFFFFFFFFFFFFFFFFFFFFFFFFFFFFF AND SWAP1 POP DUP2 PUSH1 0x0 DUP1 PUSH2 0x100 EXP DUP2 SLOAD DUP2 PUSH20 0xFFFFFFFFFFFFFFFFFFFFFFFFFFFFFFFFFFFFFFFF MUL NOT AND SWAP1 DUP4 PUSH20 0xFFFFFFFFFFFFFFFFFFFFFFFFFFFFFFFFFFFFFFFF AND MUL OR SWAP1 SSTORE POP DUP2 PUSH20 0xFFFFFFFFFFFFFFFFFFFFFFFFFFFFFFFFFFFFFFFF AND DUP2 PUSH20 0xFFFFFFFFFFFFFFFFFFFFFFFFFFFFFFFFFFFFFFFF AND PUSH32 0x8BE0079C531659141344CD1FD0A4F28419497F9722A3DAAFE3B4186F6B6457E0 PUSH1 0x40 MLOAD PUSH1 0x40 MLOAD DUP1 SWAP2 SUB SWAP1 LOG3 POP POP JUMP JUMPDEST PUSH1 0x0 DUP2 MLOAD SWAP1 POP PUSH3 0x1DB DUP2 PUSH3 0x503 JUMP JUMPDEST SWAP3 SWAP2 POP POP JUMP JUMPDEST PUSH1 0x0 DUP2 MLOAD SWAP1 POP PUSH3 0x1F2 DUP2 PUSH3 0x51D JUMP JUMPDEST SWAP3 SWAP2 POP POP JUMP JUMPDEST PUSH1 0x0 DUP1 PUSH1 0x0 PUSH1 0x60 DUP5 DUP7 SUB SLT ISZERO PUSH3 0x20E JUMPI PUSH1 0x0 DUP1 REVERT JUMPDEST PUSH1 0x0 PUSH3 0x21E DUP7 DUP3 DUP8 ADD PUSH3 0x1CA JUMP JUMPDEST SWAP4 POP POP PUSH1 0x20 PUSH3 0x231 DUP7 DUP3 DUP8 ADD PUSH3 0x1E1 JUMP JUMPDEST SWAP3 POP POP PUSH1 0x40 PUSH3 0x244 DUP7 DUP3 DUP8 ADD PUSH3 0x1E1 JUMP JUMPDEST SWAP2 POP POP SWAP3 POP SWAP3 POP SWAP3 JUMP JUMPDEST PUSH3 0x259 DUP2 PUSH3 0x4BD JUMP JUMPDEST DUP3 MSTORE POP POP JUMP JUMPDEST PUSH1 0x0 PUSH1 0x20 DUP3 ADD SWAP1 POP PUSH3 0x276 PUSH1 0x0 DUP4 ADD DUP5 PUSH3 0x24E JUMP JUMPDEST SWAP3 SWAP2 POP POP JUMP JUMPDEST PUSH1 0x0 DUP1 DUP3 SWAP2 POP DUP4 SWAP1 POP JUMPDEST PUSH1 0x1 DUP6 GT ISZERO PUSH3 0x2CE JUMPI DUP1 DUP7 DIV DUP2 GT ISZERO PUSH3 0x2A6 JUMPI PUSH3 0x2A5 PUSH3 0x4C7 JUMP JUMPDEST JUMPDEST PUSH1 0x1 DUP6 AND ISZERO PUSH3 0x2B6 JUMPI DUP1 DUP3 MUL SWAP2 POP JUMPDEST DUP1 DUP2 MUL SWAP1 POP PUSH3 0x2C6 DUP6 PUSH3 0x4F6 JUMP JUMPDEST SWAP5 POP PUSH3 0x286 JUMP JUMPDEST SWAP5 POP SWAP5 SWAP3 POP POP POP JUMP JUMPDEST PUSH1 0x0 PUSH3 0x2E4 DUP3 PUSH3 0x4BD JUMP JUMPDEST SWAP2 POP PUSH3 0x2F1 DUP4 PUSH3 0x4BD JUMP JUMPDEST SWAP3 POP PUSH3 0x320 PUSH32 0xFFFFFFFFFFFFFFFFFFFFFFFFFFFFFFFFFFFFFFFFFFFFFFFFFFFFFFFFFFFFFFFF DUP5 DUP5 PUSH3 0x328 JUMP JUMPDEST SWAP1 POP SWAP3 SWAP2 POP POP JUMP JUMPDEST PUSH1 0x0 DUP3 PUSH3 0x33A JUMPI PUSH1 0x1 SWAP1 POP PUSH3 0x40D JUMP JUMPDEST DUP2 PUSH3 0x34A JUMPI PUSH1 0x0 SWAP1 POP PUSH3 0x40D JUMP JUMPDEST DUP2 PUSH1 0x1 DUP2 EQ PUSH3 0x363 JUMPI PUSH1 0x2 DUP2 EQ PUSH3 0x36E JUMPI PUSH3 0x3A4 JUMP JUMPDEST PUSH1 0x1 SWAP2 POP POP PUSH3 0x40D JUMP JUMPDEST PUSH1 0xFF DUP5 GT ISZERO PUSH3 0x383 JUMPI PUSH3 0x382 PUSH3 0x4C7 JUMP JUMPDEST JUMPDEST DUP4 PUSH1 0x2 EXP SWAP2 POP DUP5 DUP3 GT ISZERO PUSH3 0x39D JUMPI PUSH3 0x39C PUSH3 0x4C7 JUMP JUMPDEST JUMPDEST POP PUSH3 0x40D JUMP JUMPDEST POP PUSH1 0x20 DUP4 LT PUSH2 0x133 DUP4 LT AND PUSH1 0x4E DUP5 LT PUSH1 0xB DUP5 LT AND OR ISZERO PUSH3 0x3DE JUMPI DUP3 DUP3 EXP SWAP1 POP DUP4 DUP2 GT ISZERO PUSH3 0x3D8 JUMPI PUSH3 0x3D7 PUSH3 0x4C7 JUMP JUMPDEST JUMPDEST PUSH3 0x40D JUMP JUMPDEST PUSH3 0x3ED DUP5 DUP5 DUP5 PUSH1 0x1 PUSH3 0x27C JUMP JUMPDEST SWAP3 POP SWAP1 POP DUP2 DUP5 DIV DUP2 GT ISZERO PUSH3 0x407 JUMPI PUSH3 0x406 PUSH3 0x4C7 JUMP JUMPDEST JUMPDEST DUP2 DUP2 MUL SWAP1 POP JUMPDEST SWAP4 SWAP3 POP POP POP JUMP JUMPDEST PUSH1 0x0 PUSH3 0x421 DUP3 PUSH3 0x4BD JUMP JUMPDEST SWAP2 POP PUSH3 0x42E DUP4 PUSH3 0x4BD JUMP JUMPDEST SWAP3 POP DUP2 PUSH32 0xFFFFFFFFFFFFFFFFFFFFFFFFFFFFFFFFFFFFFFFFFFFFFFFFFFFFFFFFFFFFFFFF DIV DUP4 GT DUP3 ISZERO ISZERO AND ISZERO PUSH3 0x46A JUMPI PUSH3 0x469 PUSH3 0x4C7 JUMP JUMPDEST JUMPDEST DUP3 DUP3 MUL SWAP1 POP SWAP3 SWAP2 POP POP JUMP JUMPDEST PUSH1 0x0 PUSH3 0x482 DUP3 PUSH3 0x49D JUMP JUMPDEST SWAP1 POP SWAP2 SWAP1 POP JUMP JUMPDEST PUSH1 0x0 PUSH3 0x496 DUP3 PUSH3 0x475 JUMP JUMPDEST SWAP1 POP SWAP2 SWAP1 POP JUMP JUMPDEST PUSH1 0x0 PUSH20 0xFFFFFFFFFFFFFFFFFFFFFFFFFFFFFFFFFFFFFFFF DUP3 AND SWAP1 POP SWAP2 SWAP1 POP JUMP JUMPDEST PUSH1 0x0 DUP2 SWAP1 POP SWAP2 SWAP1 POP JUMP JUMPDEST PUSH32 0x4E487B7100000000000000000000000000000000000000000000000000000000 PUSH1 0x0 MSTORE PUSH1 0x11 PUSH1 0x4 MSTORE PUSH1 0x24 PUSH1 0x0 REVERT JUMPDEST PUSH1 0x0 DUP2 PUSH1 0x1 SHR SWAP1 POP SWAP2 SWAP1 POP JUMP JUMPDEST PUSH3 0x50E DUP2 PUSH3 0x489 JUMP JUMPDEST DUP2 EQ PUSH3 0x51A JUMPI PUSH1 0x0 DUP1 REVERT JUMPDEST POP JUMP JUMPDEST PUSH3 0x528 DUP2 PUSH3 0x4BD JUMP JUMPDEST DUP2 EQ PUSH3 0x534 JUMPI PUSH1 0x0 DUP1 REVERT JUMPDEST POP JUMP JUMPDEST PUSH2 0x19D8 DUP1 PUSH3 0x547 PUSH1 0x0 CODECOPY PUSH1 0x0 RETURN INVALID PUSH1 0x80 PUSH1 0x40 MSTORE CALLVALUE DUP1 ISZERO PUSH2 0x10 JUMPI PUSH1 0x0 DUP1 REVERT JUMPDEST POP PUSH1 0x4 CALLDATASIZE LT PUSH2 0xA9 JUMPI PUSH1 0x0 CALLDATALOAD PUSH1 0xE0 SHR DUP1 PUSH4 0x818AA4DF GT PUSH2 0x71 JUMPI DUP1 PUSH4 0x818AA4DF EQ PUSH2 0x13E JUMPI DUP1 PUSH4 0x8DA5CB5B EQ PUSH2 0x15A JUMPI DUP1 PUSH4 0x994F120F EQ PUSH2 0x178 JUMPI DUP1 PUSH4 0xB86D1D63 EQ PUSH2 0x1A8 JUMPI DUP1 PUSH4 0xB91D82BA EQ PUSH2 0x1C4 JUMPI DUP1 PUSH4 0xF2FDE38B EQ PUSH2 0x1E0 JUMPI PUSH2 0xA9 JUMP JUMPDEST DUP1 PUSH4 0x53FFC4DD EQ PUSH2 0xAE JUMPI DUP1 PUSH4 0x6C40BC15 EQ PUSH2 0xCA JUMPI DUP1 PUSH4 0x6CC8C590 EQ PUSH2 0xE6 JUMPI DUP1 PUSH4 0x715018A6 EQ PUSH2 0x116 JUMPI DUP1 PUSH4 0x817204A4 EQ PUSH2 0x120 JUMPI JUMPDEST PUSH1 0x0 DUP1 REVERT JUMPDEST PUSH2 0xC8 PUSH1 0x4 DUP1 CALLDATASIZE SUB DUP2 ADD SWAP1 PUSH2 0xC3 SWAP2 SWAP1 PUSH2 0xFA8 JUMP JUMPDEST PUSH2 0x1FC JUMP JUMPDEST STOP JUMPDEST PUSH2 0xE4 PUSH1 0x4 DUP1 CALLDATASIZE SUB DUP2 ADD SWAP1 PUSH2 0xDF SWAP2 SWAP1 PUSH2 0x103B JUMP JUMPDEST PUSH2 0x36A JUMP JUMPDEST STOP JUMPDEST PUSH2 0x100 PUSH1 0x4 DUP1 CALLDATASIZE SUB DUP2 ADD SWAP1 PUSH2 0xFB SWAP2 SWAP1 PUSH2 0xF56 JUMP JUMPDEST PUSH2 0x441 JUMP JUMPDEST PUSH1 0x40 MLOAD PUSH2 0x10D SWAP2 SWAP1 PUSH2 0x12B6 JUMP JUMPDEST PUSH1 0x40 MLOAD DUP1 SWAP2 SUB SWAP1 RETURN JUMPDEST PUSH2 0x11E PUSH2 0x497 JUMP JUMPDEST STOP JUMPDEST PUSH2 0x128 PUSH2 0x54E JUMP JUMPDEST PUSH1 0x40 MLOAD PUSH2 0x135 SWAP2 SWAP1 PUSH2 0x13D1 JUMP JUMPDEST PUSH1 0x40 MLOAD DUP1 SWAP2 SUB SWAP1 RETURN JUMPDEST PUSH2 0x158 PUSH1 0x4 DUP1 CALLDATASIZE SUB DUP2 ADD SWAP1 PUSH2 0x153 SWAP2 SWAP1 PUSH2 0xF56 JUMP JUMPDEST PUSH2 0x558 JUMP JUMPDEST STOP JUMPDEST PUSH2 0x162 PUSH2 0x6FE JUMP JUMPDEST PUSH1 0x40 MLOAD PUSH2 0x16F SWAP2 SWAP1 PUSH2 0x1250 JUMP JUMPDEST PUSH1 0x40 MLOAD DUP1 SWAP2 SUB SWAP1 RETURN JUMPDEST PUSH2 0x192 PUSH1 0x4 DUP1 CALLDATASIZE SUB DUP2 ADD SWAP1 PUSH2 0x18D SWAP2 SWAP1 PUSH2 0xF56 JUMP JUMPDEST PUSH2 0x727 JUMP JUMPDEST PUSH1 0x40 MLOAD PUSH2 0x19F SWAP2 SWAP1 PUSH2 0x12B6 JUMP JUMPDEST PUSH1 0x40 MLOAD DUP1 SWAP2 SUB SWAP1 RETURN JUMPDEST PUSH2 0x1C2 PUSH1 0x4 DUP1 CALLDATASIZE SUB DUP2 ADD SWAP1 PUSH2 0x1BD SWAP2 SWAP1 PUSH2 0xF7F JUMP JUMPDEST PUSH2 0x77D JUMP JUMPDEST STOP JUMPDEST PUSH2 0x1DE PUSH1 0x4 DUP1 CALLDATASIZE SUB DUP2 ADD SWAP1 PUSH2 0x1D9 SWAP2 SWAP1 PUSH2 0xF56 JUMP JUMPDEST PUSH2 0xAEC JUMP JUMPDEST STOP JUMPDEST PUSH2 0x1FA PUSH1 0x4 DUP1 CALLDATASIZE SUB DUP2 ADD SWAP1 PUSH2 0x1F5 SWAP2 SWAP1 PUSH2 0xF56 JUMP JUMPDEST PUSH2 0xC93 JUMP JUMPDEST STOP JUMPDEST PUSH2 0x204 PUSH2 0xD8B JUMP JUMPDEST PUSH20 0xFFFFFFFFFFFFFFFFFFFFFFFFFFFFFFFFFFFFFFFF AND PUSH2 0x222 PUSH2 0x6FE JUMP JUMPDEST PUSH20 0xFFFFFFFFFFFFFFFFFFFFFFFFFFFFFFFFFFFFFFFF AND EQ PUSH2 0x278 JUMPI PUSH1 0x40 MLOAD PUSH32 0x8C379A000000000000000000000000000000000000000000000000000000000 DUP2 MSTORE PUSH1 0x4 ADD PUSH2 0x26F SWAP1 PUSH2 0x1371 JUMP JUMPDEST PUSH1 0x40 MLOAD DUP1 SWAP2 SUB SWAP1 REVERT JUMPDEST PUSH1 0x0 JUMPDEST DUP2 MLOAD DUP2 LT ISZERO PUSH2 0x32F JUMPI PUSH1 0x1 PUSH1 0x3 PUSH1 0x0 DUP5 DUP5 DUP2 MLOAD DUP2 LT PUSH2 0x2C3 JUMPI PUSH32 0x4E487B7100000000000000000000000000000000000000000000000000000000 PUSH1 0x0 MSTORE PUSH1 0x32 PUSH1 0x4 MSTORE PUSH1 0x24 PUSH1 0x0 REVERT JUMPDEST PUSH1 0x20 MUL PUSH1 0x20 ADD ADD MLOAD PUSH20 0xFFFFFFFFFFFFFFFFFFFFFFFFFFFFFFFFFFFFFFFF AND PUSH20 0xFFFFFFFFFFFFFFFFFFFFFFFFFFFFFFFFFFFFFFFF AND DUP2 MSTORE PUSH1 0x20 ADD SWAP1 DUP2 MSTORE PUSH1 0x20 ADD PUSH1 0x0 KECCAK256 PUSH1 0x0 PUSH2 0x100 EXP DUP2 SLOAD DUP2 PUSH1 0xFF MUL NOT AND SWAP1 DUP4 ISZERO ISZERO MUL OR SWAP1 SSTORE POP DUP1 DUP1 PUSH2 0x327 SWAP1 PUSH2 0x1713 JUMP JUMPDEST SWAP2 POP POP PUSH2 0x27B JUMP JUMPDEST POP PUSH32 0xB28A1E012B51D89C4A8E49D849CDF5C6A48CD7CF9D30F56FEB2B08AF455B1261 DUP2 PUSH1 0x40 MLOAD PUSH2 0x35F SWAP2 SWAP1 PUSH2 0x1294 JUMP JUMPDEST PUSH1 0x40 MLOAD DUP1 SWAP2 SUB SWAP1 LOG1 POP JUMP JUMPDEST PUSH2 0x372 PUSH2 0xD8B JUMP JUMPDEST PUSH20 0xFFFFFFFFFFFFFFFFFFFFFFFFFFFFFFFFFFFFFFFF AND PUSH2 0x390 PUSH2 0x6FE JUMP JUMPDEST PUSH20 0xFFFFFFFFFFFFFFFFFFFFFFFFFFFFFFFFFFFFFFFF AND EQ PUSH2 0x3E6 JUMPI PUSH1 0x40 MLOAD PUSH32 0x8C379A000000000000000000000000000000000000000000000000000000000 DUP2 MSTORE PUSH1 0x4 ADD PUSH2 0x3DD SWAP1 PUSH2 0x1371 JUMP JUMPDEST PUSH1 0x40 MLOAD DUP1 SWAP2 SUB SWAP1 REVERT JUMPDEST DUP1 PUSH1 0xA PUSH2 0x3F3 SWAP2 SWAP1 PUSH2 0x14DA JUMP JUMPDEST DUP3 PUSH2 0x3FE SWAP2 SWAP1 PUSH2 0x15F8 JUMP JUMPDEST PUSH1 0x2 DUP2 SWAP1 SSTORE POP PUSH32 0xD9A0CF9E55EB1762F95C0CC3403BAD112FB1204165D68B31084C72FFB5306720 PUSH1 0x2 SLOAD PUSH1 0x40 MLOAD PUSH2 0x435 SWAP2 SWAP1 PUSH2 0x13D1 JUMP JUMPDEST PUSH1 0x40 MLOAD DUP1 SWAP2 SUB SWAP1 LOG1 POP POP JUMP JUMPDEST PUSH1 0x0 PUSH1 0x4 PUSH1 0x0 DUP4 PUSH20 0xFFFFFFFFFFFFFFFFFFFFFFFFFFFFFFFFFFFFFFFF AND PUSH20 0xFFFFFFFFFFFFFFFFFFFFFFFFFFFFFFFFFFFFFFFF AND DUP2 MSTORE PUSH1 0x20 ADD SWAP1 DUP2 MSTORE PUSH1 0x20 ADD PUSH1 0x0 KECCAK256 PUSH1 0x0 SWAP1 SLOAD SWAP1 PUSH2 0x100 EXP SWAP1 DIV PUSH1 0xFF AND SWAP1 POP SWAP2 SWAP1 POP JUMP JUMPDEST PUSH2 0x49F PUSH2 0xD8B JUMP JUMPDEST PUSH20 0xFFFFFFFFFFFFFFFFFFFFFFFFFFFFFFFFFFFFFFFF AND PUSH2 0x4BD PUSH2 0x6FE JUMP JUMPDEST PUSH20 0xFFFFFFFFFFFFFFFFFFFFFFFFFFFFFFFFFFFFFFFF AND EQ PUSH2 0x513 JUMPI PUSH1 0x40 MLOAD PUSH32 0x8C379A000000000000000000000000000000000000000000000000000000000 DUP2 MSTORE PUSH1 0x4 ADD PUSH2 0x50A SWAP1 PUSH2 0x1371 JUMP JUMPDEST PUSH1 0x40 MLOAD DUP1 SWAP2 SUB SWAP1 REVERT JUMPDEST PUSH1 0x40 MLOAD PUSH32 0x8C379A000000000000000000000000000000000000000000000000000000000 DUP2 MSTORE PUSH1 0x4 ADD PUSH2 0x545 SWAP1 PUSH2 0x13B1 JUMP JUMPDEST PUSH1 0x40 MLOAD DUP1 SWAP2 SUB SWAP1 REVERT JUMPDEST PUSH1 0x0 PUSH1 0x2 SLOAD SWAP1 POP SWAP1 JUMP JUMPDEST PUSH2 0x560 PUSH2 0xD8B JUMP JUMPDEST PUSH20 0xFFFFFFFFFFFFFFFFFFFFFFFFFFFFFFFFFFFFFFFF AND PUSH2 0x57E PUSH2 0x6FE JUMP JUMPDEST PUSH20 0xFFFFFFFFFFFFFFFFFFFFFFFFFFFFFFFFFFFFFFFF AND EQ PUSH2 0x5D4 JUMPI PUSH1 0x40 MLOAD PUSH32 0x8C379A000000000000000000000000000000000000000000000000000000000 DUP2 MSTORE PUSH1 0x4 ADD PUSH2 0x5CB SWAP1 PUSH2 0x1371 JUMP JUMPDEST PUSH1 0x40 MLOAD DUP1 SWAP2 SUB SWAP1 REVERT JUMPDEST PUSH1 0x4 PUSH1 0x0 DUP3 PUSH20 0xFFFFFFFFFFFFFFFFFFFFFFFFFFFFFFFFFFFFFFFF AND PUSH20 0xFFFFFFFFFFFFFFFFFFFFFFFFFFFFFFFFFFFFFFFF AND DUP2 MSTORE PUSH1 0x20 ADD SWAP1 DUP2 MSTORE PUSH1 0x20 ADD PUSH1 0x0 KECCAK256 PUSH1 0x0 SWAP1 SLOAD SWAP1 PUSH2 0x100 EXP SWAP1 DIV PUSH1 0xFF AND PUSH2 0x660 JUMPI PUSH1 0x40 MLOAD PUSH32 0x8C379A000000000000000000000000000000000000000000000000000000000 DUP2 MSTORE PUSH1 0x4 ADD PUSH2 0x657 SWAP1 PUSH2 0x12D1 JUMP JUMPDEST PUSH1 0x40 MLOAD DUP1 SWAP2 SUB SWAP1 REVERT JUMPDEST PUSH1 0x0 PUSH1 0x4 PUSH1 0x0 DUP4 PUSH20 0xFFFFFFFFFFFFFFFFFFFFFFFFFFFFFFFFFFFFFFFF AND PUSH20 0xFFFFFFFFFFFFFFFFFFFFFFFFFFFFFFFFFFFFFFFF AND DUP2 MSTORE PUSH1 0x20 ADD SWAP1 DUP2 MSTORE PUSH1 0x20 ADD PUSH1 0x0 KECCAK256 PUSH1 0x0 PUSH2 0x100 EXP DUP2 SLOAD DUP2 PUSH1 0xFF MUL NOT AND SWAP1 DUP4 ISZERO ISZERO MUL OR SWAP1 SSTORE POP DUP1 PUSH20 0xFFFFFFFFFFFFFFFFFFFFFFFFFFFFFFFFFFFFFFFF AND PUSH32 0xB50D2F20AB76E82FE675D3130121DD7B78EA1EB3A9C0E15075CD423E0671D65D PUSH1 0x40 MLOAD PUSH1 0x40 MLOAD DUP1 SWAP2 SUB SWAP1 LOG2 POP JUMP JUMPDEST PUSH1 0x0 DUP1 PUSH1 0x0 SWAP1 SLOAD SWAP1 PUSH2 0x100 EXP SWAP1 DIV PUSH20 0xFFFFFFFFFFFFFFFFFFFFFFFFFFFFFFFFFFFFFFFF AND SWAP1 POP SWAP1 JUMP JUMPDEST PUSH1 0x0 PUSH1 0x3 PUSH1 0x0 DUP4 PUSH20 0xFFFFFFFFFFFFFFFFFFFFFFFFFFFFFFFFFFFFFFFF AND PUSH20 0xFFFFFFFFFFFFFFFFFFFFFFFFFFFFFFFFFFFFFFFF AND DUP2 MSTORE PUSH1 0x20 ADD SWAP1 DUP2 MSTORE PUSH1 0x20 ADD PUSH1 0x0 KECCAK256 PUSH1 0x0 SWAP1 SLOAD SWAP1 PUSH2 0x100 EXP SWAP1 DIV PUSH1 0xFF AND SWAP1 POP SWAP2 SWAP1 POP JUMP JUMPDEST PUSH1 0x4 PUSH1 0x0 CALLER PUSH20 0xFFFFFFFFFFFFFFFFFFFFFFFFFFFFFFFFFFFFFFFF AND PUSH20 0xFFFFFFFFFFFFFFFFFFFFFFFFFFFFFFFFFFFFFFFF AND DUP2 MSTORE PUSH1 0x20 ADD SWAP1 DUP2 MSTORE PUSH1 0x20 ADD PUSH1 0x0 KECCAK256 PUSH1 0x0 SWAP1 SLOAD SWAP1 PUSH2 0x100 EXP SWAP1 DIV PUSH1 0xFF AND PUSH2 0x809 JUMPI PUSH1 0x40 MLOAD PUSH32 0x8C379A000000000000000000000000000000000000000000000000000000000 DUP2 MSTORE PUSH1 0x4 ADD PUSH2 0x800 SWAP1 PUSH2 0x1351 JUMP JUMPDEST PUSH1 0x40 MLOAD DUP1 SWAP2 SUB SWAP1 REVERT JUMPDEST PUSH1 0x3 PUSH1 0x0 DUP3 PUSH20 0xFFFFFFFFFFFFFFFFFFFFFFFFFFFFFFFFFFFFFFFF AND PUSH20 0xFFFFFFFFFFFFFFFFFFFFFFFFFFFFFFFFFFFFFFFF AND DUP2 MSTORE PUSH1 0x20 ADD SWAP1 DUP2 MSTORE PUSH1 0x20 ADD PUSH1 0x0 KECCAK256 PUSH1 0x0 SWAP1 SLOAD SWAP1 PUSH2 0x100 EXP SWAP1 DIV PUSH1 0xFF AND ISZERO PUSH2 0x896 JUMPI PUSH1 0x40 MLOAD PUSH32 0x8C379A000000000000000000000000000000000000000000000000000000000 DUP2 MSTORE PUSH1 0x4 ADD PUSH2 0x88D SWAP1 PUSH2 0x1391 JUMP JUMPDEST PUSH1 0x40 MLOAD DUP1 SWAP2 SUB SWAP1 REVERT JUMPDEST PUSH1 0x2 SLOAD PUSH1 0x1 PUSH1 0x0 SWAP1 SLOAD SWAP1 PUSH2 0x100 EXP SWAP1 DIV PUSH20 0xFFFFFFFFFFFFFFFFFFFFFFFFFFFFFFFFFFFFFFFF AND PUSH20 0xFFFFFFFFFFFFFFFFFFFFFFFFFFFFFFFFFFFFFFFF AND PUSH4 0x70A08231 ADDRESS PUSH1 0x40 MLOAD DUP3 PUSH4 0xFFFFFFFF AND PUSH1 0xE0 SHL DUP2 MSTORE PUSH1 0x4 ADD PUSH2 0x8F4 SWAP2 SWAP1 PUSH2 0x1250 JUMP JUMPDEST PUSH1 0x20 PUSH1 0x40 MLOAD DUP1 DUP4 SUB DUP2 DUP7 DUP1 EXTCODESIZE ISZERO DUP1 ISZERO PUSH2 0x90C JUMPI PUSH1 0x0 DUP1 REVERT JUMPDEST POP GAS STATICCALL ISZERO DUP1 ISZERO PUSH2 0x920 JUMPI RETURNDATASIZE PUSH1 0x0 DUP1 RETURNDATACOPY RETURNDATASIZE PUSH1 0x0 REVERT JUMPDEST POP POP POP POP PUSH1 0x40 MLOAD RETURNDATASIZE PUSH1 0x1F NOT PUSH1 0x1F DUP3 ADD AND DUP3 ADD DUP1 PUSH1 0x40 MSTORE POP DUP2 ADD SWAP1 PUSH2 0x944 SWAP2 SWAP1 PUSH2 0x1012 JUMP JUMPDEST LT ISZERO PUSH2 0x985 JUMPI PUSH1 0x40 MLOAD PUSH32 0x8C379A000000000000000000000000000000000000000000000000000000000 DUP2 MSTORE PUSH1 0x4 ADD PUSH2 0x97C SWAP1 PUSH2 0x1331 JUMP JUMPDEST PUSH1 0x40 MLOAD DUP1 SWAP2 SUB SWAP1 REVERT JUMPDEST PUSH1 0x1 PUSH1 0x0 SWAP1 SLOAD SWAP1 PUSH2 0x100 EXP SWAP1 DIV PUSH20 0xFFFFFFFFFFFFFFFFFFFFFFFFFFFFFFFFFFFFFFFF AND PUSH20 0xFFFFFFFFFFFFFFFFFFFFFFFFFFFFFFFFFFFFFFFF AND PUSH4 0xA9059CBB DUP3 PUSH1 0x2 SLOAD PUSH1 0x40 MLOAD DUP4 PUSH4 0xFFFFFFFF AND PUSH1 0xE0 SHL DUP2 MSTORE PUSH1 0x4 ADD PUSH2 0x9E4 SWAP3 SWAP2 SWAP1 PUSH2 0x126B JUMP JUMPDEST PUSH1 0x20 PUSH1 0x40 MLOAD DUP1 DUP4 SUB DUP2 PUSH1 0x0 DUP8 DUP1 EXTCODESIZE ISZERO DUP1 ISZERO PUSH2 0x9FE JUMPI PUSH1 0x0 DUP1 REVERT JUMPDEST POP GAS CALL ISZERO DUP1 ISZERO PUSH2 0xA12 JUMPI RETURNDATASIZE PUSH1 0x0 DUP1 RETURNDATACOPY RETURNDATASIZE PUSH1 0x0 REVERT JUMPDEST POP POP POP POP PUSH1 0x40 MLOAD RETURNDATASIZE PUSH1 0x1F NOT PUSH1 0x1F DUP3 ADD AND DUP3 ADD DUP1 PUSH1 0x40 MSTORE POP DUP2 ADD SWAP1 PUSH2 0xA36 SWAP2 SWAP1 PUSH2 0xFE9 JUMP JUMPDEST POP PUSH1 0x1 PUSH1 0x3 PUSH1 0x0 DUP4 PUSH20 0xFFFFFFFFFFFFFFFFFFFFFFFFFFFFFFFFFFFFFFFF AND PUSH20 0xFFFFFFFFFFFFFFFFFFFFFFFFFFFFFFFFFFFFFFFF AND DUP2 MSTORE PUSH1 0x20 ADD SWAP1 DUP2 MSTORE PUSH1 0x20 ADD PUSH1 0x0 KECCAK256 PUSH1 0x0 PUSH2 0x100 EXP DUP2 SLOAD DUP2 PUSH1 0xFF MUL NOT AND SWAP1 DUP4 ISZERO ISZERO MUL OR SWAP1 SSTORE POP CALLER PUSH20 0xFFFFFFFFFFFFFFFFFFFFFFFFFFFFFFFFFFFFFFFF AND DUP2 PUSH20 0xFFFFFFFFFFFFFFFFFFFFFFFFFFFFFFFFFFFFFFFF AND PUSH32 0x2258D110ECF73A35E930244B87A40CC209EB766DED6F5F53210167E9BD56A36E PUSH1 0x40 MLOAD PUSH1 0x40 MLOAD DUP1 SWAP2 SUB SWAP1 LOG3 POP JUMP JUMPDEST PUSH2 0xAF4 PUSH2 0xD8B JUMP JUMPDEST PUSH20 0xFFFFFFFFFFFFFFFFFFFFFFFFFFFFFFFFFFFFFFFF AND PUSH2 0xB12 PUSH2 0x6FE JUMP JUMPDEST PUSH20 0xFFFFFFFFFFFFFFFFFFFFFFFFFFFFFFFFFFFFFFFF AND EQ PUSH2 0xB68 JUMPI PUSH1 0x40 MLOAD PUSH32 0x8C379A000000000000000000000000000000000000000000000000000000000 DUP2 MSTORE PUSH1 0x4 ADD PUSH2 0xB5F SWAP1 PUSH2 0x1371 JUMP JUMPDEST PUSH1 0x40 MLOAD DUP1 SWAP2 SUB SWAP1 REVERT JUMPDEST PUSH1 0x4 PUSH1 0x0 DUP3 PUSH20 0xFFFFFFFFFFFFFFFFFFFFFFFFFFFFFFFFFFFFFFFF AND PUSH20 0xFFFFFFFFFFFFFFFFFFFFFFFFFFFFFFFFFFFFFFFF AND DUP2 MSTORE PUSH1 0x20 ADD SWAP1 DUP2 MSTORE PUSH1 0x20 ADD PUSH1 0x0 KECCAK256 PUSH1 0x0 SWAP1 SLOAD SWAP1 PUSH2 0x100 EXP SWAP1 DIV PUSH1 0xFF AND ISZERO PUSH2 0xBF5 JUMPI PUSH1 0x40 MLOAD PUSH32 0x8C379A000000000000000000000000000000000000000000000000000000000 DUP2 MSTORE PUSH1 0x4 ADD PUSH2 0xBEC SWAP1 PUSH2 0x12F1 JUMP JUMPDEST PUSH1 0x40 MLOAD DUP1 SWAP2 SUB SWAP1 REVERT JUMPDEST PUSH1 0x1 PUSH1 0x4 PUSH1 0x0 DUP4 PUSH20 0xFFFFFFFFFFFFFFFFFFFFFFFFFFFFFFFFFFFFFFFF AND PUSH20 0xFFFFFFFFFFFFFFFFFFFFFFFFFFFFFFFFFFFFFFFF AND DUP2 MSTORE PUSH1 0x20 ADD SWAP1 DUP2 MSTORE PUSH1 0x20 ADD PUSH1 0x0 KECCAK256 PUSH1 0x0 PUSH2 0x100 EXP DUP2 SLOAD DUP2 PUSH1 0xFF MUL NOT AND SWAP1 DUP4 ISZERO ISZERO MUL OR SWAP1 SSTORE POP DUP1 PUSH20 0xFFFFFFFFFFFFFFFFFFFFFFFFFFFFFFFFFFFFFFFF AND PUSH32 0x4D9D0977667B1DB25EE3CF7BF49A7DA1DC6E1AD3193CC78270AC0B5706F47F5A PUSH1 0x40 MLOAD PUSH1 0x40 MLOAD DUP1 SWAP2 SUB SWAP1 LOG2 POP JUMP JUMPDEST PUSH2 0xC9B PUSH2 0xD8B JUMP JUMPDEST PUSH20 0xFFFFFFFFFFFFFFFFFFFFFFFFFFFFFFFFFFFFFFFF AND PUSH2 0xCB9 PUSH2 0x6FE JUMP JUMPDEST PUSH20 0xFFFFFFFFFFFFFFFFFFFFFFFFFFFFFFFFFFFFFFFF AND EQ PUSH2 0xD0F JUMPI PUSH1 0x40 MLOAD PUSH32 0x8C379A000000000000000000000000000000000000000000000000000000000 DUP2 MSTORE PUSH1 0x4 ADD PUSH2 0xD06 SWAP1 PUSH2 0x1371 JUMP JUMPDEST PUSH1 0x40 MLOAD DUP1 SWAP2 SUB SWAP1 REVERT JUMPDEST PUSH1 0x0 PUSH20 0xFFFFFFFFFFFFFFFFFFFFFFFFFFFFFFFFFFFFFFFF AND DUP2 PUSH20 0xFFFFFFFFFFFFFFFFFFFFFFFFFFFFFFFFFFFFFFFF AND EQ ISZERO PUSH2 0xD7F JUMPI PUSH1 0x40 MLOAD PUSH32 0x8C379A000000000000000000000000000000000000000000000000000000000 DUP2 MSTORE PUSH1 0x4 ADD PUSH2 0xD76 SWAP1 PUSH2 0x1311 JUMP JUMPDEST PUSH1 0x40 MLOAD DUP1 SWAP2 SUB SWAP1 REVERT JUMPDEST PUSH2 0xD88 DUP2 PUSH2 0xD93 JUMP JUMPDEST POP JUMP JUMPDEST PUSH1 0x0 CALLER SWAP1 POP SWAP1 JUMP JUMPDEST PUSH1 0x0 DUP1 PUSH1 0x0 SWAP1 SLOAD SWAP1 PUSH2 0x100 EXP SWAP1 DIV PUSH20 0xFFFFFFFFFFFFFFFFFFFFFFFFFFFFFFFFFFFFFFFF AND SWAP1 POP DUP2 PUSH1 0x0 DUP1 PUSH2 0x100 EXP DUP2 SLOAD DUP2 PUSH20 0xFFFFFFFFFFFFFFFFFFFFFFFFFFFFFFFFFFFFFFFF MUL NOT AND SWAP1 DUP4 PUSH20 0xFFFFFFFFFFFFFFFFFFFFFFFFFFFFFFFFFFFFFFFF AND MUL OR SWAP1 SSTORE POP DUP2 PUSH20 0xFFFFFFFFFFFFFFFFFFFFFFFFFFFFFFFFFFFFFFFF AND DUP2 PUSH20 0xFFFFFFFFFFFFFFFFFFFFFFFFFFFFFFFFFFFFFFFF AND PUSH32 0x8BE0079C531659141344CD1FD0A4F28419497F9722A3DAAFE3B4186F6B6457E0 PUSH1 0x40 MLOAD PUSH1 0x40 MLOAD DUP1 SWAP2 SUB SWAP1 LOG3 POP POP JUMP JUMPDEST PUSH1 0x0 PUSH2 0xE6A PUSH2 0xE65 DUP5 PUSH2 0x1411 JUMP JUMPDEST PUSH2 0x13EC JUMP JUMPDEST SWAP1 POP DUP1 DUP4 DUP3 MSTORE PUSH1 0x20 DUP3 ADD SWAP1 POP DUP3 DUP6 PUSH1 0x20 DUP7 MUL DUP3 ADD GT ISZERO PUSH2 0xE89 JUMPI PUSH1 0x0 DUP1 REVERT JUMPDEST PUSH1 0x0 JUMPDEST DUP6 DUP2 LT ISZERO PUSH2 0xEB9 JUMPI DUP2 PUSH2 0xE9F DUP9 DUP3 PUSH2 0xEC3 JUMP JUMPDEST DUP5 MSTORE PUSH1 0x20 DUP5 ADD SWAP4 POP PUSH1 0x20 DUP4 ADD SWAP3 POP POP PUSH1 0x1 DUP2 ADD SWAP1 POP PUSH2 0xE8C JUMP JUMPDEST POP POP POP SWAP4 SWAP3 POP POP POP JUMP JUMPDEST PUSH1 0x0 DUP2 CALLDATALOAD SWAP1 POP PUSH2 0xED2 DUP2 PUSH2 0x1946 JUMP JUMPDEST SWAP3 SWAP2 POP POP JUMP JUMPDEST PUSH1 0x0 DUP2 CALLDATALOAD SWAP1 POP PUSH2 0xEE7 DUP2 PUSH2 0x195D JUMP JUMPDEST SWAP3 SWAP2 POP POP JUMP JUMPDEST PUSH1 0x0 DUP3 PUSH1 0x1F DUP4 ADD SLT PUSH2 0xEFE JUMPI PUSH1 0x0 DUP1 REVERT JUMPDEST DUP2 CALLDATALOAD PUSH2 0xF0E DUP5 DUP3 PUSH1 0x20 DUP7 ADD PUSH2 0xE57 JUMP JUMPDEST SWAP2 POP POP SWAP3 SWAP2 POP POP JUMP JUMPDEST PUSH1 0x0 DUP2 MLOAD SWAP1 POP PUSH2 0xF26 DUP2 PUSH2 0x1974 JUMP JUMPDEST SWAP3 SWAP2 POP POP JUMP JUMPDEST PUSH1 0x0 DUP2 CALLDATALOAD SWAP1 POP PUSH2 0xF3B DUP2 PUSH2 0x198B JUMP JUMPDEST SWAP3 SWAP2 POP POP JUMP JUMPDEST PUSH1 0x0 DUP2 MLOAD SWAP1 POP PUSH2 0xF50 DUP2 PUSH2 0x198B JUMP JUMPDEST SWAP3 SWAP2 POP POP JUMP JUMPDEST PUSH1 0x0 PUSH1 0x20 DUP3 DUP5 SUB SLT ISZERO PUSH2 0xF68 JUMPI PUSH1 0x0 DUP1 REVERT JUMPDEST PUSH1 0x0 PUSH2 0xF76 DUP5 DUP3 DUP6 ADD PUSH2 0xEC3 JUMP JUMPDEST SWAP2 POP POP SWAP3 SWAP2 POP POP JUMP JUMPDEST PUSH1 0x0 PUSH1 0x20 DUP3 DUP5 SUB SLT ISZERO PUSH2 0xF91 JUMPI PUSH1 0x0 DUP1 REVERT JUMPDEST PUSH1 0x0 PUSH2 0xF9F DUP5 DUP3 DUP6 ADD PUSH2 0xED8 JUMP JUMPDEST SWAP2 POP POP SWAP3 SWAP2 POP POP JUMP JUMPDEST PUSH1 0x0 PUSH1 0x20 DUP3 DUP5 SUB SLT ISZERO PUSH2 0xFBA JUMPI PUSH1 0x0 DUP1 REVERT JUMPDEST PUSH1 0x0 DUP3 ADD CALLDATALOAD PUSH8 0xFFFFFFFFFFFFFFFF DUP2 GT ISZERO PUSH2 0xFD4 JUMPI PUSH1 0x0 DUP1 REVERT JUMPDEST PUSH2 0xFE0 DUP5 DUP3 DUP6 ADD PUSH2 0xEED JUMP JUMPDEST SWAP2 POP POP SWAP3 SWAP2 POP POP JUMP JUMPDEST PUSH1 0x0 PUSH1 0x20 DUP3 DUP5 SUB SLT ISZERO PUSH2 0xFFB JUMPI PUSH1 0x0 DUP1 REVERT JUMPDEST PUSH1 0x0 PUSH2 0x1009 DUP5 DUP3 DUP6 ADD PUSH2 0xF17 JUMP JUMPDEST SWAP2 POP POP SWAP3 SWAP2 POP POP JUMP JUMPDEST PUSH1 0x0 PUSH1 0x20 DUP3 DUP5 SUB SLT ISZERO PUSH2 0x1024 JUMPI PUSH1 0x0 DUP1 REVERT JUMPDEST PUSH1 0x0 PUSH2 0x1032 DUP5 DUP3 DUP6 ADD PUSH2 0xF41 JUMP JUMPDEST SWAP2 POP POP SWAP3 SWAP2 POP POP JUMP JUMPDEST PUSH1 0x0 DUP1 PUSH1 0x40 DUP4 DUP6 SUB SLT ISZERO PUSH2 0x104E JUMPI PUSH1 0x0 DUP1 REVERT JUMPDEST PUSH1 0x0 PUSH2 0x105C DUP6 DUP3 DUP7 ADD PUSH2 0xF2C JUMP JUMPDEST SWAP3 POP POP PUSH1 0x20 PUSH2 0x106D DUP6 DUP3 DUP7 ADD PUSH2 0xF2C JUMP JUMPDEST SWAP2 POP POP SWAP3 POP SWAP3 SWAP1 POP JUMP JUMPDEST PUSH1 0x0 PUSH2 0x1083 DUP4 DUP4 PUSH2 0x109E JUMP JUMPDEST PUSH1 0x20 DUP4 ADD SWAP1 POP SWAP3 SWAP2 POP POP JUMP JUMPDEST PUSH2 0x1098 DUP2 PUSH2 0x16AC JUMP JUMPDEST DUP3 MSTORE POP POP JUMP JUMPDEST PUSH2 0x10A7 DUP2 PUSH2 0x1652 JUMP JUMPDEST DUP3 MSTORE POP POP JUMP JUMPDEST PUSH2 0x10B6 DUP2 PUSH2 0x1652 JUMP JUMPDEST DUP3 MSTORE POP POP JUMP JUMPDEST PUSH1 0x0 PUSH2 0x10C7 DUP3 PUSH2 0x144D JUMP JUMPDEST PUSH2 0x10D1 DUP2 DUP6 PUSH2 0x1465 JUMP JUMPDEST SWAP4 POP PUSH2 0x10DC DUP4 PUSH2 0x143D JUMP JUMPDEST DUP1 PUSH1 0x0 JUMPDEST DUP4 DUP2 LT ISZERO PUSH2 0x110D JUMPI DUP2 MLOAD PUSH2 0x10F4 DUP9 DUP3 PUSH2 0x1077 JUMP JUMPDEST SWAP8 POP PUSH2 0x10FF DUP4 PUSH2 0x1458 JUMP JUMPDEST SWAP3 POP POP PUSH1 0x1 DUP2 ADD SWAP1 POP PUSH2 0x10E0 JUMP JUMPDEST POP DUP6 SWAP4 POP POP POP POP SWAP3 SWAP2 POP POP JUMP JUMPDEST PUSH2 0x1123 DUP2 PUSH2 0x1676 JUMP JUMPDEST DUP3 MSTORE POP POP JUMP JUMPDEST PUSH1 0x0 PUSH2 0x1136 PUSH1 0x13 DUP4 PUSH2 0x1476 JUMP JUMPDEST SWAP2 POP PUSH2 0x1141 DUP3 PUSH2 0x17D8 JUMP JUMPDEST PUSH1 0x20 DUP3 ADD SWAP1 POP SWAP2 SWAP1 POP JUMP JUMPDEST PUSH1 0x0 PUSH2 0x1159 PUSH1 0x17 DUP4 PUSH2 0x1476 JUMP JUMPDEST SWAP2 POP PUSH2 0x1164 DUP3 PUSH2 0x1801 JUMP JUMPDEST PUSH1 0x20 DUP3 ADD SWAP1 POP SWAP2 SWAP1 POP JUMP JUMPDEST PUSH1 0x0 PUSH2 0x117C PUSH1 0x26 DUP4 PUSH2 0x1476 JUMP JUMPDEST SWAP2 POP PUSH2 0x1187 DUP3 PUSH2 0x182A JUMP JUMPDEST PUSH1 0x40 DUP3 ADD SWAP1 POP SWAP2 SWAP1 POP JUMP JUMPDEST PUSH1 0x0 PUSH2 0x119F PUSH1 0x1E DUP4 PUSH2 0x1476 JUMP JUMPDEST SWAP2 POP PUSH2 0x11AA DUP3 PUSH2 0x1879 JUMP JUMPDEST PUSH1 0x20 DUP3 ADD SWAP1 POP SWAP2 SWAP1 POP JUMP JUMPDEST PUSH1 0x0 PUSH2 0x11C2 PUSH1 0x1A DUP4 PUSH2 0x1476 JUMP JUMPDEST SWAP2 POP PUSH2 0x11CD DUP3 PUSH2 0x18A2 JUMP JUMPDEST PUSH1 0x20 DUP3 ADD SWAP1 POP SWAP2 SWAP1 POP JUMP JUMPDEST PUSH1 0x0 PUSH2 0x11E5 PUSH1 0x20 DUP4 PUSH2 0x1476 JUMP JUMPDEST SWAP2 POP PUSH2 0x11F0 DUP3 PUSH2 0x18CB JUMP JUMPDEST PUSH1 0x20 DUP3 ADD SWAP1 POP SWAP2 SWAP1 POP JUMP JUMPDEST PUSH1 0x0 PUSH2 0x1208 PUSH1 0x18 DUP4 PUSH2 0x1476 JUMP JUMPDEST SWAP2 POP PUSH2 0x1213 DUP3 PUSH2 0x18F4 JUMP JUMPDEST PUSH1 0x20 DUP3 ADD SWAP1 POP SWAP2 SWAP1 POP JUMP JUMPDEST PUSH1 0x0 PUSH2 0x122B PUSH1 0x19 DUP4 PUSH2 0x1476 JUMP JUMPDEST SWAP2 POP PUSH2 0x1236 DUP3 PUSH2 0x191D JUMP JUMPDEST PUSH1 0x20 DUP3 ADD SWAP1 POP SWAP2 SWAP1 POP JUMP JUMPDEST PUSH2 0x124A DUP2 PUSH2 0x16A2 JUMP JUMPDEST DUP3 MSTORE POP POP JUMP JUMPDEST PUSH1 0x0 PUSH1 0x20 DUP3 ADD SWAP1 POP PUSH2 0x1265 PUSH1 0x0 DUP4 ADD DUP5 PUSH2 0x10AD JUMP JUMPDEST SWAP3 SWAP2 POP POP JUMP JUMPDEST PUSH1 0x0 PUSH1 0x40 DUP3 ADD SWAP1 POP PUSH2 0x1280 PUSH1 0x0 DUP4 ADD DUP6 PUSH2 0x108F JUMP JUMPDEST PUSH2 0x128D PUSH1 0x20 DUP4 ADD DUP5 PUSH2 0x1241 JUMP JUMPDEST SWAP4 SWAP3 POP POP POP JUMP JUMPDEST PUSH1 0x0 PUSH1 0x20 DUP3 ADD SWAP1 POP DUP2 DUP2 SUB PUSH1 0x0 DUP4 ADD MSTORE PUSH2 0x12AE DUP2 DUP5 PUSH2 0x10BC JUMP JUMPDEST SWAP1 POP SWAP3 SWAP2 POP POP JUMP JUMPDEST PUSH1 0x0 PUSH1 0x20 DUP3 ADD SWAP1 POP PUSH2 0x12CB PUSH1 0x0 DUP4 ADD DUP5 PUSH2 0x111A JUMP JUMPDEST SWAP3 SWAP2 POP POP JUMP JUMPDEST PUSH1 0x0 PUSH1 0x20 DUP3 ADD SWAP1 POP DUP2 DUP2 SUB PUSH1 0x0 DUP4 ADD MSTORE PUSH2 0x12EA DUP2 PUSH2 0x1129 JUMP JUMPDEST SWAP1 POP SWAP2 SWAP1 POP JUMP JUMPDEST PUSH1 0x0 PUSH1 0x20 DUP3 ADD SWAP1 POP DUP2 DUP2 SUB PUSH1 0x0 DUP4 ADD MSTORE PUSH2 0x130A DUP2 PUSH2 0x114C JUMP JUMPDEST SWAP1 POP SWAP2 SWAP1 POP JUMP JUMPDEST PUSH1 0x0 PUSH1 0x20 DUP3 ADD SWAP1 POP DUP2 DUP2 SUB PUSH1 0x0 DUP4 ADD MSTORE PUSH2 0x132A DUP2 PUSH2 0x116F JUMP JUMPDEST SWAP1 POP SWAP2 SWAP1 POP JUMP JUMPDEST PUSH1 0x0 PUSH1 0x20 DUP3 ADD SWAP1 POP DUP2 DUP2 SUB PUSH1 0x0 DUP4 ADD MSTORE PUSH2 0x134A DUP2 PUSH2 0x1192 JUMP JUMPDEST SWAP1 POP SWAP2 SWAP1 POP JUMP JUMPDEST PUSH1 0x0 PUSH1 0x20 DUP3 ADD SWAP1 POP DUP2 DUP2 SUB PUSH1 0x0 DUP4 ADD MSTORE PUSH2 0x136A DUP2 PUSH2 0x11B5 JUMP JUMPDEST SWAP1 POP SWAP2 SWAP1 POP JUMP JUMPDEST PUSH1 0x0 PUSH1 0x20 DUP3 ADD SWAP1 POP DUP2 DUP2 SUB PUSH1 0x0 DUP4 ADD MSTORE PUSH2 0x138A DUP2 PUSH2 0x11D8 JUMP JUMPDEST SWAP1 POP SWAP2 SWAP1 POP JUMP JUMPDEST PUSH1 0x0 PUSH1 0x20 DUP3 ADD SWAP1 POP DUP2 DUP2 SUB PUSH1 0x0 DUP4 ADD MSTORE PUSH2 0x13AA DUP2 PUSH2 0x11FB JUMP JUMPDEST SWAP1 POP SWAP2 SWAP1 POP JUMP JUMPDEST PUSH1 0x0 PUSH1 0x20 DUP3 ADD SWAP1 POP DUP2 DUP2 SUB PUSH1 0x0 DUP4 ADD MSTORE PUSH2 0x13CA DUP2 PUSH2 0x121E JUMP JUMPDEST SWAP1 POP SWAP2 SWAP1 POP JUMP JUMPDEST PUSH1 0x0 PUSH1 0x20 DUP3 ADD SWAP1 POP PUSH2 0x13E6 PUSH1 0x0 DUP4 ADD DUP5 PUSH2 0x1241 JUMP JUMPDEST SWAP3 SWAP2 POP POP JUMP JUMPDEST PUSH1 0x0 PUSH2 0x13F6 PUSH2 0x1407 JUMP JUMPDEST SWAP1 POP PUSH2 0x1402 DUP3 DUP3 PUSH2 0x16E2 JUMP JUMPDEST SWAP2 SWAP1 POP JUMP JUMPDEST PUSH1 0x0 PUSH1 0x40 MLOAD SWAP1 POP SWAP1 JUMP JUMPDEST PUSH1 0x0 PUSH8 0xFFFFFFFFFFFFFFFF DUP3 GT ISZERO PUSH2 0x142C JUMPI PUSH2 0x142B PUSH2 0x178B JUMP JUMPDEST JUMPDEST PUSH1 0x20 DUP3 MUL SWAP1 POP PUSH1 0x20 DUP2 ADD SWAP1 POP SWAP2 SWAP1 POP JUMP JUMPDEST PUSH1 0x0 DUP2 SWAP1 POP PUSH1 0x20 DUP3 ADD SWAP1 POP SWAP2 SWAP1 POP JUMP JUMPDEST PUSH1 0x0 DUP2 MLOAD SWAP1 POP SWAP2 SWAP1 POP JUMP JUMPDEST PUSH1 0x0 PUSH1 0x20 DUP3 ADD SWAP1 POP SWAP2 SWAP1 POP JUMP JUMPDEST PUSH1 0x0 DUP3 DUP3 MSTORE PUSH1 0x20 DUP3 ADD SWAP1 POP SWAP3 SWAP2 POP POP JUMP JUMPDEST PUSH1 0x0 DUP3 DUP3 MSTORE PUSH1 0x20 DUP3 ADD SWAP1 POP SWAP3 SWAP2 POP POP JUMP JUMPDEST PUSH1 0x0 DUP1 DUP3 SWAP2 POP DUP4 SWAP1 POP JUMPDEST PUSH1 0x1 DUP6 GT ISZERO PUSH2 0x14D1 JUMPI DUP1 DUP7 DIV DUP2 GT ISZERO PUSH2 0x14AD JUMPI PUSH2 0x14AC PUSH2 0x175C JUMP JUMPDEST JUMPDEST PUSH1 0x1 DUP6 AND ISZERO PUSH2 0x14BC JUMPI DUP1 DUP3 MUL SWAP2 POP JUMPDEST DUP1 DUP2 MUL SWAP1 POP PUSH2 0x14CA DUP6 PUSH2 0x17CB JUMP JUMPDEST SWAP5 POP PUSH2 0x1491 JUMP JUMPDEST SWAP5 POP SWAP5 SWAP3 POP POP POP JUMP JUMPDEST PUSH1 0x0 PUSH2 0x14E5 DUP3 PUSH2 0x16A2 JUMP JUMPDEST SWAP2 POP PUSH2 0x14F0 DUP4 PUSH2 0x16A2 JUMP JUMPDEST SWAP3 POP PUSH2 0x151D PUSH32 0xFFFFFFFFFFFFFFFFFFFFFFFFFFFFFFFFFFFFFFFFFFFFFFFFFFFFFFFFFFFFFFFF DUP5 DUP5 PUSH2 0x1525 JUMP JUMPDEST SWAP1 POP SWAP3 SWAP2 POP POP JUMP JUMPDEST PUSH1 0x0 DUP3 PUSH2 0x1535 JUMPI PUSH1 0x1 SWAP1 POP PUSH2 0x15F1 JUMP JUMPDEST DUP2 PUSH2 0x1543 JUMPI PUSH1 0x0 SWAP1 POP PUSH2 0x15F1 JUMP JUMPDEST DUP2 PUSH1 0x1 DUP2 EQ PUSH2 0x1559 JUMPI PUSH1 0x2 DUP2 EQ PUSH2 0x1563 JUMPI PUSH2 0x1592 JUMP JUMPDEST PUSH1 0x1 SWAP2 POP POP PUSH2 0x15F1 JUMP JUMPDEST PUSH1 0xFF DUP5 GT ISZERO PUSH2 0x1575 JUMPI PUSH2 0x1574 PUSH2 0x175C JUMP JUMPDEST JUMPDEST DUP4 PUSH1 0x2 EXP SWAP2 POP DUP5 DUP3 GT ISZERO PUSH2 0x158C JUMPI PUSH2 0x158B PUSH2 0x175C JUMP JUMPDEST JUMPDEST POP PUSH2 0x15F1 JUMP JUMPDEST POP PUSH1 0x20 DUP4 LT PUSH2 0x133 DUP4 LT AND PUSH1 0x4E DUP5 LT PUSH1 0xB DUP5 LT AND OR ISZERO PUSH2 0x15C7 JUMPI DUP3 DUP3 EXP SWAP1 POP DUP4 DUP2 GT ISZERO PUSH2 0x15C2 JUMPI PUSH2 0x15C1 PUSH2 0x175C JUMP JUMPDEST JUMPDEST PUSH2 0x15F1 JUMP JUMPDEST PUSH2 0x15D4 DUP5 DUP5 DUP5 PUSH1 0x1 PUSH2 0x1487 JUMP JUMPDEST SWAP3 POP SWAP1 POP DUP2 DUP5 DIV DUP2 GT ISZERO PUSH2 0x15EB JUMPI PUSH2 0x15EA PUSH2 0x175C JUMP JUMPDEST JUMPDEST DUP2 DUP2 MUL SWAP1 POP JUMPDEST SWAP4 SWAP3 POP POP POP JUMP JUMPDEST PUSH1 0x0 PUSH2 0x1603 DUP3 PUSH2 0x16A2 JUMP JUMPDEST SWAP2 POP PUSH2 0x160E DUP4 PUSH2 0x16A2 JUMP JUMPDEST SWAP3 POP DUP2 PUSH32 0xFFFFFFFFFFFFFFFFFFFFFFFFFFFFFFFFFFFFFFFFFFFFFFFFFFFFFFFFFFFFFFFF DIV DUP4 GT DUP3 ISZERO ISZERO AND ISZERO PUSH2 0x1647 JUMPI PUSH2 0x1646 PUSH2 0x175C JUMP JUMPDEST JUMPDEST DUP3 DUP3 MUL SWAP1 POP SWAP3 SWAP2 POP POP JUMP JUMPDEST PUSH1 0x0 PUSH2 0x165D DUP3 PUSH2 0x1682 JUMP JUMPDEST SWAP1 POP SWAP2 SWAP1 POP JUMP JUMPDEST PUSH1 0x0 PUSH2 0x166F DUP3 PUSH2 0x1682 JUMP JUMPDEST SWAP1 POP SWAP2 SWAP1 POP JUMP JUMPDEST PUSH1 0x0 DUP2 ISZERO ISZERO SWAP1 POP SWAP2 SWAP1 POP JUMP JUMPDEST PUSH1 0x0 PUSH20 0xFFFFFFFFFFFFFFFFFFFFFFFFFFFFFFFFFFFFFFFF DUP3 AND SWAP1 POP SWAP2 SWAP1 POP JUMP JUMPDEST PUSH1 0x0 DUP2 SWAP1 POP SWAP2 SWAP1 POP JUMP JUMPDEST PUSH1 0x0 PUSH2 0x16B7 DUP3 PUSH2 0x16BE JUMP JUMPDEST SWAP1 POP SWAP2 SWAP1 POP JUMP JUMPDEST PUSH1 0x0 PUSH2 0x16C9 DUP3 PUSH2 0x16D0 JUMP JUMPDEST SWAP1 POP SWAP2 SWAP1 POP JUMP JUMPDEST PUSH1 0x0 PUSH2 0x16DB DUP3 PUSH2 0x1682 JUMP JUMPDEST SWAP1 POP SWAP2 SWAP1 POP JUMP JUMPDEST PUSH2 0x16EB DUP3 PUSH2 0x17BA JUMP JUMPDEST DUP2 ADD DUP2 DUP2 LT PUSH8 0xFFFFFFFFFFFFFFFF DUP3 GT OR ISZERO PUSH2 0x170A JUMPI PUSH2 0x1709 PUSH2 0x178B JUMP JUMPDEST JUMPDEST DUP1 PUSH1 0x40 MSTORE POP POP POP JUMP JUMPDEST PUSH1 0x0 PUSH2 0x171E DUP3 PUSH2 0x16A2 JUMP JUMPDEST SWAP2 POP PUSH32 0xFFFFFFFFFFFFFFFFFFFFFFFFFFFFFFFFFFFFFFFFFFFFFFFFFFFFFFFFFFFFFFFF DUP3 EQ ISZERO PUSH2 0x1751 JUMPI PUSH2 0x1750 PUSH2 0x175C JUMP JUMPDEST JUMPDEST PUSH1 0x1 DUP3 ADD SWAP1 POP SWAP2 SWAP1 POP JUMP JUMPDEST PUSH32 0x4E487B7100000000000000000000000000000000000000000000000000000000 PUSH1 0x0 MSTORE PUSH1 0x11 PUSH1 0x4 MSTORE PUSH1 0x24 PUSH1 0x0 REVERT JUMPDEST PUSH32 0x4E487B7100000000000000000000000000000000000000000000000000000000 PUSH1 0x0 MSTORE PUSH1 0x41 PUSH1 0x4 MSTORE PUSH1 0x24 PUSH1 0x0 REVERT JUMPDEST PUSH1 0x0 PUSH1 0x1F NOT PUSH1 0x1F DUP4 ADD AND SWAP1 POP SWAP2 SWAP1 POP JUMP JUMPDEST PUSH1 0x0 DUP2 PUSH1 0x1 SHR SWAP1 POP SWAP2 SWAP1 POP JUMP JUMPDEST PUSH32 0x52756E6E6572204E6F7420566572696669656400000000000000000000000000 PUSH1 0x0 DUP3 ADD MSTORE POP JUMP JUMPDEST PUSH32 0x52756E6E657220416C7265616479205665726966696564000000000000000000 PUSH1 0x0 DUP3 ADD MSTORE POP JUMP JUMPDEST PUSH32 0x4F776E61626C653A206E6577206F776E657220697320746865207A65726F2061 PUSH1 0x0 DUP3 ADD MSTORE PUSH32 0x6464726573730000000000000000000000000000000000000000000000000000 PUSH1 0x20 DUP3 ADD MSTORE POP JUMP JUMPDEST PUSH32 0x4E6F2066617563657420746F6B656E7320746F20646973747269627574650000 PUSH1 0x0 DUP3 ADD MSTORE POP JUMP JUMPDEST PUSH32 0x4E6F7420566572696669656420746F2052756E20466175636574000000000000 PUSH1 0x0 DUP3 ADD MSTORE POP JUMP JUMPDEST PUSH32 0x4F776E61626C653A2063616C6C6572206973206E6F7420746865206F776E6572 PUSH1 0x0 DUP3 ADD MSTORE POP JUMP JUMPDEST PUSH32 0x5573657220616C72656164792075736564206661756365740000000000000000 PUSH1 0x0 DUP3 ADD MSTORE POP JUMP JUMPDEST PUSH32 0x43616E6E6F742072656E6F756E6365206F776E65727368697000000000000000 PUSH1 0x0 DUP3 ADD MSTORE POP JUMP JUMPDEST PUSH2 0x194F DUP2 PUSH2 0x1652 JUMP JUMPDEST DUP2 EQ PUSH2 0x195A JUMPI PUSH1 0x0 DUP1 REVERT JUMPDEST POP JUMP JUMPDEST PUSH2 0x1966 DUP2 PUSH2 0x1664 JUMP JUMPDEST DUP2 EQ PUSH2 0x1971 JUMPI PUSH1 0x0 DUP1 REVERT JUMPDEST POP JUMP JUMPDEST PUSH2 0x197D DUP2 PUSH2 0x1676 JUMP JUMPDEST DUP2 EQ PUSH2 0x1988 JUMPI PUSH1 0x0 DUP1 REVERT JUMPDEST POP JUMP JUMPDEST PUSH2 0x1994 DUP2 PUSH2 0x16A2 JUMP JUMPDEST DUP2 EQ PUSH2 0x199F JUMPI PUSH1 0x0 DUP1 REVERT JUMPDEST POP JUMP INVALID LOG2 PUSH5 0x6970667358 0x22 SLT KECCAK256 CALLDATACOPY EXTCODECOPY SWAP16 PUSH23 0x311CF828425275D15CC47DE7BCDB67DEC881D5B742E854 0xE4 SWAP3 0x5E 0x22 SWAP3 PUSH5 0x736F6C6343 STOP ADDMOD DIV STOP CALLER "
        },
        "methodIdentifiers": {
          "bulkExcludeUsers(address[])": "53ffc4dd",
          "checkVerified(address)": "6cc8c590",
          "faucet(address)": "b86d1d63",
          "getDripAmount()": "817204a4",
          "hasUsedFaucet(address)": "994f120f",
          "owner()": "8da5cb5b",
          "removeRunner(address)": "818aa4df",
          "renounceOwnership()": "715018a6",
          "setDripAmount(uint256,uint256)": "6c40bc15",
          "transferOwnership(address)": "f2fde38b",
          "verifyRunner(address)": "b91d82ba"
        }
      }
    }
  }
}