{
  "_format": "hh-sol-artifact-1",
  "contractName": "SchusterFWEB3Faucet",
  "sourceName": "contracts/SchusterFWEB3Faucet.sol",
  "abi": [
    {
      "inputs": [
        {
          "internalType": "contract IERC20",
          "name": "_token",
          "type": "address"
        },
        {
          "internalType": "uint256",
          "name": "_faucetDripBase",
          "type": "uint256"
        },
        {
          "internalType": "uint256",
          "name": "_faucetDripDecimal",
          "type": "uint256"
        }
      ],
      "stateMutability": "nonpayable",
      "type": "constructor"
    },
    {
      "anonymous": false,
      "inputs": [
        {
          "indexed": false,
          "internalType": "address[]",
          "name": "_users",
          "type": "address[]"
        }
      ],
      "name": "BulkExclusion",
      "type": "event"
    },
    {
      "anonymous": false,
      "inputs": [
        {
          "indexed": false,
          "internalType": "uint256",
          "name": "_dripAmount",
          "type": "uint256"
        }
      ],
      "name": "DripAmountSet",
      "type": "event"
    },
    {
      "anonymous": false,
      "inputs": [
        {
          "indexed": true,
          "internalType": "address",
          "name": "_user",
          "type": "address"
        },
        {
          "indexed": true,
          "internalType": "address",
          "name": "_runner",
          "type": "address"
        }
      ],
      "name": "FaucetUsed",
      "type": "event"
    },
    {
      "anonymous": false,
      "inputs": [
        {
          "indexed": true,
          "internalType": "address",
          "name": "previousOwner",
          "type": "address"
        },
        {
          "indexed": true,
          "internalType": "address",
          "name": "newOwner",
          "type": "address"
        }
      ],
      "name": "OwnershipTransferred",
      "type": "event"
    },
    {
      "anonymous": false,
      "inputs": [
        {
          "indexed": true,
          "internalType": "address",
          "name": "_runner",
          "type": "address"
        }
      ],
      "name": "RunnerAdded",
      "type": "event"
    },
    {
      "anonymous": false,
      "inputs": [
        {
          "indexed": true,
          "internalType": "address",
          "name": "_runner",
          "type": "address"
        }
      ],
      "name": "RunnerRemoved",
      "type": "event"
    },
    {
      "inputs": [
        {
          "internalType": "address[]",
          "name": "_users",
          "type": "address[]"
        }
      ],
      "name": "bulkExcludeUsers",
      "outputs": [],
      "stateMutability": "nonpayable",
      "type": "function"
    },
    {
      "inputs": [
        {
          "internalType": "address",
          "name": "_runner",
          "type": "address"
        }
      ],
      "name": "checkVerified",
      "outputs": [
        {
          "internalType": "bool",
          "name": "",
          "type": "bool"
        }
      ],
      "stateMutability": "view",
      "type": "function"
    },
    {
      "inputs": [
        {
          "internalType": "address payable",
          "name": "_user",
          "type": "address"
        }
      ],
      "name": "faucet",
      "outputs": [],
      "stateMutability": "nonpayable",
      "type": "function"
    },
    {
      "inputs": [],
      "name": "getDripAmount",
      "outputs": [
        {
          "internalType": "uint256",
          "name": "",
          "type": "uint256"
        }
      ],
      "stateMutability": "view",
      "type": "function"
    },
    {
      "inputs": [
        {
          "internalType": "address",
          "name": "_user",
          "type": "address"
        }
      ],
      "name": "hasUsedFaucet",
      "outputs": [
        {
          "internalType": "bool",
          "name": "",
          "type": "bool"
        }
      ],
      "stateMutability": "view",
      "type": "function"
    },
    {
      "inputs": [],
      "name": "owner",
      "outputs": [
        {
          "internalType": "address",
          "name": "",
          "type": "address"
        }
      ],
      "stateMutability": "view",
      "type": "function"
    },
    {
      "inputs": [
        {
          "internalType": "address",
          "name": "_runner",
          "type": "address"
        }
      ],
      "name": "removeRunner",
      "outputs": [],
      "stateMutability": "nonpayable",
      "type": "function"
    },
    {
      "inputs": [],
      "name": "renounceOwnership",
      "outputs": [],
      "stateMutability": "nonpayable",
      "type": "function"
    },
    {
      "inputs": [
        {
          "internalType": "uint256",
          "name": "_faucetDripBase",
          "type": "uint256"
        },
        {
          "internalType": "uint256",
          "name": "_faucetDripDecimal",
          "type": "uint256"
        }
      ],
      "name": "setDripAmount",
      "outputs": [],
      "stateMutability": "nonpayable",
      "type": "function"
    },
    {
      "inputs": [
        {
          "internalType": "address",
          "name": "newOwner",
          "type": "address"
        }
      ],
      "name": "transferOwnership",
      "outputs": [],
      "stateMutability": "nonpayable",
      "type": "function"
    },
    {
      "inputs": [
        {
          "internalType": "address",
          "name": "_runner",
          "type": "address"
        }
      ],
      "name": "verifyRunner",
      "outputs": [],
      "stateMutability": "nonpayable",
      "type": "function"
    }
  ],
  "bytecode": "0x60806040523480156200001157600080fd5b5060405162001f1f38038062001f1f8339818101604052810190620000379190620001f8565b620000576200004b620000fe60201b60201c565b6200010660201b60201c565b82600160006101000a81548173ffffffffffffffffffffffffffffffffffffffff021916908373ffffffffffffffffffffffffffffffffffffffff16021790555080600a620000a79190620002d7565b82620000b4919062000414565b6002819055507fd9a0cf9e55eb1762f95c0cc3403bad112fb1204165d68b31084c72ffb5306720600254604051620000ed91906200025f565b60405180910390a150505062000537565b600033905090565b60008060009054906101000a900473ffffffffffffffffffffffffffffffffffffffff169050816000806101000a81548173ffffffffffffffffffffffffffffffffffffffff021916908373ffffffffffffffffffffffffffffffffffffffff1602179055508173ffffffffffffffffffffffffffffffffffffffff168173ffffffffffffffffffffffffffffffffffffffff167f8be0079c531659141344cd1fd0a4f28419497f9722a3daafe3b4186f6b6457e060405160405180910390a35050565b600081519050620001db8162000503565b92915050565b600081519050620001f2816200051d565b92915050565b6000806000606084860312156200020e57600080fd5b60006200021e86828701620001ca565b93505060206200023186828701620001e1565b92505060406200024486828701620001e1565b9150509250925092565b6200025981620004bd565b82525050565b60006020820190506200027660008301846200024e565b92915050565b6000808291508390505b6001851115620002ce57808604811115620002a657620002a5620004c7565b5b6001851615620002b65780820291505b8081029050620002c685620004f6565b945062000286565b94509492505050565b6000620002e482620004bd565b9150620002f183620004bd565b9250620003207fffffffffffffffffffffffffffffffffffffffffffffffffffffffffffffffff848462000328565b905092915050565b6000826200033a57600190506200040d565b816200034a57600090506200040d565b81600181146200036357600281146200036e57620003a4565b60019150506200040d565b60ff841115620003835762000382620004c7565b5b8360020a9150848211156200039d576200039c620004c7565b5b506200040d565b5060208310610133831016604e8410600b8410161715620003de5782820a905083811115620003d857620003d7620004c7565b5b6200040d565b620003ed84848460016200027c565b92509050818404811115620004075762000406620004c7565b5b81810290505b9392505050565b60006200042182620004bd565b91506200042e83620004bd565b9250817fffffffffffffffffffffffffffffffffffffffffffffffffffffffffffffffff04831182151516156200046a5762000469620004c7565b5b828202905092915050565b600062000482826200049d565b9050919050565b6000620004968262000475565b9050919050565b600073ffffffffffffffffffffffffffffffffffffffff82169050919050565b6000819050919050565b7f4e487b7100000000000000000000000000000000000000000000000000000000600052601160045260246000fd5b60008160011c9050919050565b6200050e8162000489565b81146200051a57600080fd5b50565b6200052881620004bd565b81146200053457600080fd5b50565b6119d880620005476000396000f3fe608060405234801561001057600080fd5b50600436106100a95760003560e01c8063818aa4df11610071578063818aa4df1461013e5780638da5cb5b1461015a578063994f120f14610178578063b86d1d63146101a8578063b91d82ba146101c4578063f2fde38b146101e0576100a9565b806353ffc4dd146100ae5780636c40bc15146100ca5780636cc8c590146100e6578063715018a614610116578063817204a414610120575b600080fd5b6100c860048036038101906100c39190610fa8565b6101fc565b005b6100e460048036038101906100df919061103b565b61036a565b005b61010060048036038101906100fb9190610f56565b610441565b60405161010d91906112b6565b60405180910390f35b61011e610497565b005b61012861054e565b60405161013591906113d1565b60405180910390f35b61015860048036038101906101539190610f56565b610558565b005b6101626106fe565b60405161016f9190611250565b60405180910390f35b610192600480360381019061018d9190610f56565b610727565b60405161019f91906112b6565b60405180910390f35b6101c260048036038101906101bd9190610f7f565b61077d565b005b6101de60048036038101906101d99190610f56565b610aec565b005b6101fa60048036038101906101f59190610f56565b610c93565b005b610204610d8b565b73ffffffffffffffffffffffffffffffffffffffff166102226106fe565b73ffffffffffffffffffffffffffffffffffffffff1614610278576040517f08c379a000000000000000000000000000000000000000000000000000000000815260040161026f90611371565b60405180910390fd5b60005b815181101561032f576001600360008484815181106102c3577f4e487b7100000000000000000000000000000000000000000000000000000000600052603260045260246000fd5b602002602001015173ffffffffffffffffffffffffffffffffffffffff1673ffffffffffffffffffffffffffffffffffffffff16815260200190815260200160002060006101000a81548160ff021916908315150217905550808061032790611713565b91505061027b565b507fb28a1e012b51d89c4a8e49d849cdf5c6a48cd7cf9d30f56feb2b08af455b12618160405161035f9190611294565b60405180910390a150565b610372610d8b565b73ffffffffffffffffffffffffffffffffffffffff166103906106fe565b73ffffffffffffffffffffffffffffffffffffffff16146103e6576040517f08c379a00000000000000000000000000000000000000000000000000000000081526004016103dd90611371565b60405180910390fd5b80600a6103f391906114da565b826103fe91906115f8565b6002819055507fd9a0cf9e55eb1762f95c0cc3403bad112fb1204165d68b31084c72ffb530672060025460405161043591906113d1565b60405180910390a15050565b6000600460008373ffffffffffffffffffffffffffffffffffffffff1673ffffffffffffffffffffffffffffffffffffffff16815260200190815260200160002060009054906101000a900460ff169050919050565b61049f610d8b565b73ffffffffffffffffffffffffffffffffffffffff166104bd6106fe565b73ffffffffffffffffffffffffffffffffffffffff1614610513576040517f08c379a000000000000000000000000000000000000000000000000000000000815260040161050a90611371565b60405180910390fd5b6040517f08c379a0000000000000000000000000000000000000000000000000000000008152600401610545906113b1565b60405180910390fd5b6000600254905090565b610560610d8b565b73ffffffffffffffffffffffffffffffffffffffff1661057e6106fe565b73ffffffffffffffffffffffffffffffffffffffff16146105d4576040517f08c379a00000000000000000000000000000000000000000000000000000000081526004016105cb90611371565b60405180910390fd5b600460008273ffffffffffffffffffffffffffffffffffffffff1673ffffffffffffffffffffffffffffffffffffffff16815260200190815260200160002060009054906101000a900460ff16610660576040517f08c379a0000000000000000000000000000000000000000000000000000000008152600401610657906112d1565b60405180910390fd5b6000600460008373ffffffffffffffffffffffffffffffffffffffff1673ffffffffffffffffffffffffffffffffffffffff16815260200190815260200160002060006101000a81548160ff0219169083151502179055508073ffffffffffffffffffffffffffffffffffffffff167fb50d2f20ab76e82fe675d3130121dd7b78ea1eb3a9c0e15075cd423e0671d65d60405160405180910390a250565b60008060009054906101000a900473ffffffffffffffffffffffffffffffffffffffff16905090565b6000600360008373ffffffffffffffffffffffffffffffffffffffff1673ffffffffffffffffffffffffffffffffffffffff16815260200190815260200160002060009054906101000a900460ff169050919050565b600460003373ffffffffffffffffffffffffffffffffffffffff1673ffffffffffffffffffffffffffffffffffffffff16815260200190815260200160002060009054906101000a900460ff16610809576040517f08c379a000000000000000000000000000000000000000000000000000000000815260040161080090611351565b60405180910390fd5b600360008273ffffffffffffffffffffffffffffffffffffffff1673ffffffffffffffffffffffffffffffffffffffff16815260200190815260200160002060009054906101000a900460ff1615610896576040517f08c379a000000000000000000000000000000000000000000000000000000000815260040161088d90611391565b60405180910390fd5b600254600160009054906101000a900473ffffffffffffffffffffffffffffffffffffffff1673ffffffffffffffffffffffffffffffffffffffff166370a08231306040518263ffffffff1660e01b81526004016108f49190611250565b60206040518083038186803b15801561090c57600080fd5b505afa158015610920573d6000803e3d6000fd5b505050506040513d601f19601f820116820180604052508101906109449190611012565b1015610985576040517f08c379a000000000000000000000000000000000000000000000000000000000815260040161097c90611331565b60405180910390fd5b600160009054906101000a900473ffffffffffffffffffffffffffffffffffffffff1673ffffffffffffffffffffffffffffffffffffffff1663a9059cbb826002546040518363ffffffff1660e01b81526004016109e492919061126b565b602060405180830381600087803b1580156109fe57600080fd5b505af1158015610a12573d6000803e3d6000fd5b505050506040513d601f19601f82011682018060405250810190610a369190610fe9565b506001600360008373ffffffffffffffffffffffffffffffffffffffff1673ffffffffffffffffffffffffffffffffffffffff16815260200190815260200160002060006101000a81548160ff0219169083151502179055503373ffffffffffffffffffffffffffffffffffffffff168173ffffffffffffffffffffffffffffffffffffffff167f2258d110ecf73a35e930244b87a40cc209eb766ded6f5f53210167e9bd56a36e60405160405180910390a350565b610af4610d8b565b73ffffffffffffffffffffffffffffffffffffffff16610b126106fe565b73ffffffffffffffffffffffffffffffffffffffff1614610b68576040517f08c379a0000000000000000000000000000000000000000000000000000000008152600401610b5f90611371565b60405180910390fd5b600460008273ffffffffffffffffffffffffffffffffffffffff1673ffffffffffffffffffffffffffffffffffffffff16815260200190815260200160002060009054906101000a900460ff1615610bf5576040517f08c379a0000000000000000000000000000000000000000000000000000000008152600401610bec906112f1565b60405180910390fd5b6001600460008373ffffffffffffffffffffffffffffffffffffffff1673ffffffffffffffffffffffffffffffffffffffff16815260200190815260200160002060006101000a81548160ff0219169083151502179055508073ffffffffffffffffffffffffffffffffffffffff167f4d9d0977667b1db25ee3cf7bf49a7da1dc6e1ad3193cc78270ac0b5706f47f5a60405160405180910390a250565b610c9b610d8b565b73ffffffffffffffffffffffffffffffffffffffff16610cb96106fe565b73ffffffffffffffffffffffffffffffffffffffff1614610d0f576040517f08c379a0000000000000000000000000000000000000000000000000000000008152600401610d0690611371565b60405180910390fd5b600073ffffffffffffffffffffffffffffffffffffffff168173ffffffffffffffffffffffffffffffffffffffff161415610d7f576040517f08c379a0000000000000000000000000000000000000000000000000000000008152600401610d7690611311565b60405180910390fd5b610d8881610d93565b50565b600033905090565b60008060009054906101000a900473ffffffffffffffffffffffffffffffffffffffff169050816000806101000a81548173ffffffffffffffffffffffffffffffffffffffff021916908373ffffffffffffffffffffffffffffffffffffffff1602179055508173ffffffffffffffffffffffffffffffffffffffff168173ffffffffffffffffffffffffffffffffffffffff167f8be0079c531659141344cd1fd0a4f28419497f9722a3daafe3b4186f6b6457e060405160405180910390a35050565b6000610e6a610e6584611411565b6113ec565b90508083825260208201905082856020860282011115610e8957600080fd5b60005b85811015610eb95781610e9f8882610ec3565b845260208401935060208301925050600181019050610e8c565b5050509392505050565b600081359050610ed281611946565b92915050565b600081359050610ee78161195d565b92915050565b600082601f830112610efe57600080fd5b8135610f0e848260208601610e57565b91505092915050565b600081519050610f2681611974565b92915050565b600081359050610f3b8161198b565b92915050565b600081519050610f508161198b565b92915050565b600060208284031215610f6857600080fd5b6000610f7684828501610ec3565b91505092915050565b600060208284031215610f9157600080fd5b6000610f9f84828501610ed8565b91505092915050565b600060208284031215610fba57600080fd5b600082013567ffffffffffffffff811115610fd457600080fd5b610fe084828501610eed565b91505092915050565b600060208284031215610ffb57600080fd5b600061100984828501610f17565b91505092915050565b60006020828403121561102457600080fd5b600061103284828501610f41565b91505092915050565b6000806040838503121561104e57600080fd5b600061105c85828601610f2c565b925050602061106d85828601610f2c565b9150509250929050565b6000611083838361109e565b60208301905092915050565b611098816116ac565b82525050565b6110a781611652565b82525050565b6110b681611652565b82525050565b60006110c78261144d565b6110d18185611465565b93506110dc8361143d565b8060005b8381101561110d5781516110f48882611077565b97506110ff83611458565b9250506001810190506110e0565b5085935050505092915050565b61112381611676565b82525050565b6000611136601383611476565b9150611141826117d8565b602082019050919050565b6000611159601783611476565b915061116482611801565b602082019050919050565b600061117c602683611476565b91506111878261182a565b604082019050919050565b600061119f601e83611476565b91506111aa82611879565b602082019050919050565b60006111c2601a83611476565b91506111cd826118a2565b602082019050919050565b60006111e5602083611476565b91506111f0826118cb565b602082019050919050565b6000611208601883611476565b9150611213826118f4565b602082019050919050565b600061122b601983611476565b91506112368261191d565b602082019050919050565b61124a816116a2565b82525050565b600060208201905061126560008301846110ad565b92915050565b6000604082019050611280600083018561108f565b61128d6020830184611241565b9392505050565b600060208201905081810360008301526112ae81846110bc565b905092915050565b60006020820190506112cb600083018461111a565b92915050565b600060208201905081810360008301526112ea81611129565b9050919050565b6000602082019050818103600083015261130a8161114c565b9050919050565b6000602082019050818103600083015261132a8161116f565b9050919050565b6000602082019050818103600083015261134a81611192565b9050919050565b6000602082019050818103600083015261136a816111b5565b9050919050565b6000602082019050818103600083015261138a816111d8565b9050919050565b600060208201905081810360008301526113aa816111fb565b9050919050565b600060208201905081810360008301526113ca8161121e565b9050919050565b60006020820190506113e66000830184611241565b92915050565b60006113f6611407565b905061140282826116e2565b919050565b6000604051905090565b600067ffffffffffffffff82111561142c5761142b61178b565b5b602082029050602081019050919050565b6000819050602082019050919050565b600081519050919050565b6000602082019050919050565b600082825260208201905092915050565b600082825260208201905092915050565b6000808291508390505b60018511156114d1578086048111156114ad576114ac61175c565b5b60018516156114bc5780820291505b80810290506114ca856117cb565b9450611491565b94509492505050565b60006114e5826116a2565b91506114f0836116a2565b925061151d7fffffffffffffffffffffffffffffffffffffffffffffffffffffffffffffffff8484611525565b905092915050565b60008261153557600190506115f1565b8161154357600090506115f1565b8160018114611559576002811461156357611592565b60019150506115f1565b60ff8411156115755761157461175c565b5b8360020a91508482111561158c5761158b61175c565b5b506115f1565b5060208310610133831016604e8410600b84101617156115c75782820a9050838111156115c2576115c161175c565b5b6115f1565b6115d48484846001611487565b925090508184048111156115eb576115ea61175c565b5b81810290505b9392505050565b6000611603826116a2565b915061160e836116a2565b9250817fffffffffffffffffffffffffffffffffffffffffffffffffffffffffffffffff04831182151516156116475761164661175c565b5b828202905092915050565b600061165d82611682565b9050919050565b600061166f82611682565b9050919050565b60008115159050919050565b600073ffffffffffffffffffffffffffffffffffffffff82169050919050565b6000819050919050565b60006116b7826116be565b9050919050565b60006116c9826116d0565b9050919050565b60006116db82611682565b9050919050565b6116eb826117ba565b810181811067ffffffffffffffff8211171561170a5761170961178b565b5b80604052505050565b600061171e826116a2565b91507fffffffffffffffffffffffffffffffffffffffffffffffffffffffffffffffff8214156117515761175061175c565b5b600182019050919050565b7f4e487b7100000000000000000000000000000000000000000000000000000000600052601160045260246000fd5b7f4e487b7100000000000000000000000000000000000000000000000000000000600052604160045260246000fd5b6000601f19601f8301169050919050565b60008160011c9050919050565b7f52756e6e6572204e6f7420566572696669656400000000000000000000000000600082015250565b7f52756e6e657220416c7265616479205665726966696564000000000000000000600082015250565b7f4f776e61626c653a206e6577206f776e657220697320746865207a65726f206160008201527f6464726573730000000000000000000000000000000000000000000000000000602082015250565b7f4e6f2066617563657420746f6b656e7320746f20646973747269627574650000600082015250565b7f4e6f7420566572696669656420746f2052756e20466175636574000000000000600082015250565b7f4f776e61626c653a2063616c6c6572206973206e6f7420746865206f776e6572600082015250565b7f5573657220616c72656164792075736564206661756365740000000000000000600082015250565b7f43616e6e6f742072656e6f756e6365206f776e65727368697000000000000000600082015250565b61194f81611652565b811461195a57600080fd5b50565b61196681611664565b811461197157600080fd5b50565b61197d81611676565b811461198857600080fd5b50565b611994816116a2565b811461199f57600080fd5b5056fea2646970667358221220373c9f76311cf828425275d15cc47de7bcdb67dec881d5b742e854e4925e229264736f6c63430008040033",
  "linkReferences": {},
  "deployedLinkReferences": {}
}