{
  "_format": "hh-sol-artifact-1",
  "contractName": "SchusterFWEB3Faucet",
  "sourceName": "contracts/SchusterFWEB3Faucet.sol",
  "abi": [
    {
      "inputs": [
        {
          "internalType": "contract IERC20",
          "name": "_token",
          "type": "address"
        },
        {
          "internalType": "uint256",
          "name": "_faucetDripBase",
          "type": "uint256"
        },
        {
          "internalType": "uint256",
          "name": "_faucetDripDecimal",
          "type": "uint256"
        }
      ],
      "stateMutability": "nonpayable",
      "type": "constructor"
    },
    {
      "anonymous": false,
      "inputs": [
        {
          "indexed": false,
          "internalType": "address[]",
          "name": "_users",
          "type": "address[]"
        }
      ],
      "name": "BulkExclusion",
      "type": "event"
    },
    {
      "anonymous": false,
      "inputs": [
        {
          "indexed": false,
          "internalType": "uint256",
          "name": "_dripAmount",
          "type": "uint256"
        }
      ],
      "name": "DripAmountSet",
      "type": "event"
    },
    {
      "anonymous": false,
      "inputs": [
        {
          "indexed": true,
          "internalType": "address",
          "name": "_user",
          "type": "address"
        },
        {
          "indexed": true,
          "internalType": "address",
          "name": "_runner",
          "type": "address"
        }
      ],
      "name": "FaucetUsed",
      "type": "event"
    },
    {
      "anonymous": false,
      "inputs": [
        {
          "indexed": true,
          "internalType": "address",
          "name": "previousOwner",
          "type": "address"
        },
        {
          "indexed": true,
          "internalType": "address",
          "name": "newOwner",
          "type": "address"
        }
      ],
      "name": "OwnershipTransferred",
      "type": "event"
    },
    {
      "anonymous": false,
      "inputs": [
        {
          "indexed": true,
          "internalType": "address",
          "name": "_runner",
          "type": "address"
        }
      ],
      "name": "RunnerAdded",
      "type": "event"
    },
    {
      "anonymous": false,
      "inputs": [
        {
          "indexed": true,
          "internalType": "address",
          "name": "_runner",
          "type": "address"
        }
      ],
      "name": "RunnerRemoved",
      "type": "event"
    },
    {
      "inputs": [
        {
          "internalType": "address[]",
          "name": "_users",
          "type": "address[]"
        }
      ],
      "name": "bulkExcludeUsers",
      "outputs": [],
      "stateMutability": "nonpayable",
      "type": "function"
    },
    {
      "inputs": [
        {
          "internalType": "address payable",
          "name": "_user",
          "type": "address"
        }
      ],
      "name": "faucet",
      "outputs": [],
      "stateMutability": "nonpayable",
      "type": "function"
    },
    {
      "inputs": [],
      "name": "getDripAmount",
      "outputs": [
        {
          "internalType": "uint256",
          "name": "",
          "type": "uint256"
        }
      ],
      "stateMutability": "view",
      "type": "function"
    },
    {
      "inputs": [
        {
          "internalType": "address",
          "name": "_user",
          "type": "address"
        }
      ],
      "name": "hasUsedFaucet",
      "outputs": [
        {
          "internalType": "bool",
          "name": "",
          "type": "bool"
        }
      ],
      "stateMutability": "view",
      "type": "function"
    },
    {
      "inputs": [],
      "name": "owner",
      "outputs": [
        {
          "internalType": "address",
          "name": "",
          "type": "address"
        }
      ],
      "stateMutability": "view",
      "type": "function"
    },
    {
      "inputs": [
        {
          "internalType": "address",
          "name": "_runner",
          "type": "address"
        }
      ],
      "name": "removeRunner",
      "outputs": [],
      "stateMutability": "nonpayable",
      "type": "function"
    },
    {
      "inputs": [],
      "name": "renounceOwnership",
      "outputs": [],
      "stateMutability": "nonpayable",
      "type": "function"
    },
    {
      "inputs": [
        {
          "internalType": "uint256",
          "name": "_faucetDripBase",
          "type": "uint256"
        },
        {
          "internalType": "uint256",
          "name": "_faucetDripDecimal",
          "type": "uint256"
        }
      ],
      "name": "setDripAmount",
      "outputs": [],
      "stateMutability": "nonpayable",
      "type": "function"
    },
    {
      "inputs": [
        {
          "internalType": "address",
          "name": "newOwner",
          "type": "address"
        }
      ],
      "name": "transferOwnership",
      "outputs": [],
      "stateMutability": "nonpayable",
      "type": "function"
    },
    {
      "inputs": [
        {
          "internalType": "address",
          "name": "_runner",
          "type": "address"
        }
      ],
      "name": "verifyRunner",
      "outputs": [],
      "stateMutability": "nonpayable",
      "type": "function"
    }
  ],
  "bytecode": "0x60806040523480156200001157600080fd5b5060405162001df338038062001df38339818101604052810190620000379190620001f8565b620000576200004b620000fe60201b60201c565b6200010660201b60201c565b82600160006101000a81548173ffffffffffffffffffffffffffffffffffffffff021916908373ffffffffffffffffffffffffffffffffffffffff16021790555080600a620000a79190620002d7565b82620000b4919062000414565b6002819055507fd9a0cf9e55eb1762f95c0cc3403bad112fb1204165d68b31084c72ffb5306720600254604051620000ed91906200025f565b60405180910390a150505062000537565b600033905090565b60008060009054906101000a900473ffffffffffffffffffffffffffffffffffffffff169050816000806101000a81548173ffffffffffffffffffffffffffffffffffffffff021916908373ffffffffffffffffffffffffffffffffffffffff1602179055508173ffffffffffffffffffffffffffffffffffffffff168173ffffffffffffffffffffffffffffffffffffffff167f8be0079c531659141344cd1fd0a4f28419497f9722a3daafe3b4186f6b6457e060405160405180910390a35050565b600081519050620001db8162000503565b92915050565b600081519050620001f2816200051d565b92915050565b6000806000606084860312156200020e57600080fd5b60006200021e86828701620001ca565b93505060206200023186828701620001e1565b92505060406200024486828701620001e1565b9150509250925092565b6200025981620004bd565b82525050565b60006020820190506200027660008301846200024e565b92915050565b6000808291508390505b6001851115620002ce57808604811115620002a657620002a5620004c7565b5b6001851615620002b65780820291505b8081029050620002c685620004f6565b945062000286565b94509492505050565b6000620002e482620004bd565b9150620002f183620004bd565b9250620003207fffffffffffffffffffffffffffffffffffffffffffffffffffffffffffffffff848462000328565b905092915050565b6000826200033a57600190506200040d565b816200034a57600090506200040d565b81600181146200036357600281146200036e57620003a4565b60019150506200040d565b60ff841115620003835762000382620004c7565b5b8360020a9150848211156200039d576200039c620004c7565b5b506200040d565b5060208310610133831016604e8410600b8410161715620003de5782820a905083811115620003d857620003d7620004c7565b5b6200040d565b620003ed84848460016200027c565b92509050818404811115620004075762000406620004c7565b5b81810290505b9392505050565b60006200042182620004bd565b91506200042e83620004bd565b9250817fffffffffffffffffffffffffffffffffffffffffffffffffffffffffffffffff04831182151516156200046a5762000469620004c7565b5b828202905092915050565b600062000482826200049d565b9050919050565b6000620004968262000475565b9050919050565b600073ffffffffffffffffffffffffffffffffffffffff82169050919050565b6000819050919050565b7f4e487b7100000000000000000000000000000000000000000000000000000000600052601160045260246000fd5b60008160011c9050919050565b6200050e8162000489565b81146200051a57600080fd5b50565b6200052881620004bd565b81146200053457600080fd5b50565b6118ac80620005476000396000f3fe608060405234801561001057600080fd5b506004361061009e5760003560e01c80638da5cb5b116100665780638da5cb5b1461011f578063994f120f1461013d578063b86d1d631461016d578063b91d82ba14610189578063f2fde38b146101a55761009e565b806353ffc4dd146100a35780636c40bc15146100bf578063715018a6146100db578063817204a4146100e5578063818aa4df14610103575b600080fd5b6100bd60048036038101906100b89190610ee8565b6101c1565b005b6100d960048036038101906100d49190610f7b565b61032f565b005b6100e3610406565b005b6100ed61048e565b6040516100fa91906112ce565b60405180910390f35b61011d60048036038101906101189190610e96565b610498565b005b61012761063e565b604051610134919061116d565b60405180910390f35b61015760048036038101906101529190610e96565b610667565b60405161016491906111d3565b60405180910390f35b61018760048036038101906101829190610ebf565b6106bd565b005b6101a3600480360381019061019e9190610e96565b610a2c565b005b6101bf60048036038101906101ba9190610e96565b610bd3565b005b6101c9610ccb565b73ffffffffffffffffffffffffffffffffffffffff166101e761063e565b73ffffffffffffffffffffffffffffffffffffffff161461023d576040517f08c379a00000000000000000000000000000000000000000000000000000000081526004016102349061128e565b60405180910390fd5b60005b81518110156102f457600160036000848481518110610288577f4e487b7100000000000000000000000000000000000000000000000000000000600052603260045260246000fd5b602002602001015173ffffffffffffffffffffffffffffffffffffffff1673ffffffffffffffffffffffffffffffffffffffff16815260200190815260200160002060006101000a81548160ff02191690831515021790555080806102ec90611610565b915050610240565b507fb28a1e012b51d89c4a8e49d849cdf5c6a48cd7cf9d30f56feb2b08af455b12618160405161032491906111b1565b60405180910390a150565b610337610ccb565b73ffffffffffffffffffffffffffffffffffffffff1661035561063e565b73ffffffffffffffffffffffffffffffffffffffff16146103ab576040517f08c379a00000000000000000000000000000000000000000000000000000000081526004016103a29061128e565b60405180910390fd5b80600a6103b891906113d7565b826103c391906114f5565b6002819055507fd9a0cf9e55eb1762f95c0cc3403bad112fb1204165d68b31084c72ffb53067206002546040516103fa91906112ce565b60405180910390a15050565b61040e610ccb565b73ffffffffffffffffffffffffffffffffffffffff1661042c61063e565b73ffffffffffffffffffffffffffffffffffffffff1614610482576040517f08c379a00000000000000000000000000000000000000000000000000000000081526004016104799061128e565b60405180910390fd5b61048c6000610cd3565b565b6000600254905090565b6104a0610ccb565b73ffffffffffffffffffffffffffffffffffffffff166104be61063e565b73ffffffffffffffffffffffffffffffffffffffff1614610514576040517f08c379a000000000000000000000000000000000000000000000000000000000815260040161050b9061128e565b60405180910390fd5b600460008273ffffffffffffffffffffffffffffffffffffffff1673ffffffffffffffffffffffffffffffffffffffff16815260200190815260200160002060009054906101000a900460ff166105a0576040517f08c379a0000000000000000000000000000000000000000000000000000000008152600401610597906111ee565b60405180910390fd5b6000600460008373ffffffffffffffffffffffffffffffffffffffff1673ffffffffffffffffffffffffffffffffffffffff16815260200190815260200160002060006101000a81548160ff0219169083151502179055508073ffffffffffffffffffffffffffffffffffffffff167fb50d2f20ab76e82fe675d3130121dd7b78ea1eb3a9c0e15075cd423e0671d65d60405160405180910390a250565b60008060009054906101000a900473ffffffffffffffffffffffffffffffffffffffff16905090565b6000600360008373ffffffffffffffffffffffffffffffffffffffff1673ffffffffffffffffffffffffffffffffffffffff16815260200190815260200160002060009054906101000a900460ff169050919050565b600460003373ffffffffffffffffffffffffffffffffffffffff1673ffffffffffffffffffffffffffffffffffffffff16815260200190815260200160002060009054906101000a900460ff16610749576040517f08c379a00000000000000000000000000000000000000000000000000000000081526004016107409061126e565b60405180910390fd5b600360008273ffffffffffffffffffffffffffffffffffffffff1673ffffffffffffffffffffffffffffffffffffffff16815260200190815260200160002060009054906101000a900460ff16156107d6576040517f08c379a00000000000000000000000000000000000000000000000000000000081526004016107cd906112ae565b60405180910390fd5b600254600160009054906101000a900473ffffffffffffffffffffffffffffffffffffffff1673ffffffffffffffffffffffffffffffffffffffff166370a08231306040518263ffffffff1660e01b8152600401610834919061116d565b60206040518083038186803b15801561084c57600080fd5b505afa158015610860573d6000803e3d6000fd5b505050506040513d601f19601f820116820180604052508101906108849190610f52565b10156108c5576040517f08c379a00000000000000000000000000000000000000000000000000000000081526004016108bc9061124e565b60405180910390fd5b600160009054906101000a900473ffffffffffffffffffffffffffffffffffffffff1673ffffffffffffffffffffffffffffffffffffffff1663a9059cbb826002546040518363ffffffff1660e01b8152600401610924929190611188565b602060405180830381600087803b15801561093e57600080fd5b505af1158015610952573d6000803e3d6000fd5b505050506040513d601f19601f820116820180604052508101906109769190610f29565b506001600360008373ffffffffffffffffffffffffffffffffffffffff1673ffffffffffffffffffffffffffffffffffffffff16815260200190815260200160002060006101000a81548160ff0219169083151502179055503373ffffffffffffffffffffffffffffffffffffffff168173ffffffffffffffffffffffffffffffffffffffff167f2258d110ecf73a35e930244b87a40cc209eb766ded6f5f53210167e9bd56a36e60405160405180910390a350565b610a34610ccb565b73ffffffffffffffffffffffffffffffffffffffff16610a5261063e565b73ffffffffffffffffffffffffffffffffffffffff1614610aa8576040517f08c379a0000000000000000000000000000000000000000000000000000000008152600401610a9f9061128e565b60405180910390fd5b600460008273ffffffffffffffffffffffffffffffffffffffff1673ffffffffffffffffffffffffffffffffffffffff16815260200190815260200160002060009054906101000a900460ff1615610b35576040517f08c379a0000000000000000000000000000000000000000000000000000000008152600401610b2c9061120e565b60405180910390fd5b6001600460008373ffffffffffffffffffffffffffffffffffffffff1673ffffffffffffffffffffffffffffffffffffffff16815260200190815260200160002060006101000a81548160ff0219169083151502179055508073ffffffffffffffffffffffffffffffffffffffff167f4d9d0977667b1db25ee3cf7bf49a7da1dc6e1ad3193cc78270ac0b5706f47f5a60405160405180910390a250565b610bdb610ccb565b73ffffffffffffffffffffffffffffffffffffffff16610bf961063e565b73ffffffffffffffffffffffffffffffffffffffff1614610c4f576040517f08c379a0000000000000000000000000000000000000000000000000000000008152600401610c469061128e565b60405180910390fd5b600073ffffffffffffffffffffffffffffffffffffffff168173ffffffffffffffffffffffffffffffffffffffff161415610cbf576040517f08c379a0000000000000000000000000000000000000000000000000000000008152600401610cb69061122e565b60405180910390fd5b610cc881610cd3565b50565b600033905090565b60008060009054906101000a900473ffffffffffffffffffffffffffffffffffffffff169050816000806101000a81548173ffffffffffffffffffffffffffffffffffffffff021916908373ffffffffffffffffffffffffffffffffffffffff1602179055508173ffffffffffffffffffffffffffffffffffffffff168173ffffffffffffffffffffffffffffffffffffffff167f8be0079c531659141344cd1fd0a4f28419497f9722a3daafe3b4186f6b6457e060405160405180910390a35050565b6000610daa610da58461130e565b6112e9565b90508083825260208201905082856020860282011115610dc957600080fd5b60005b85811015610df95781610ddf8882610e03565b845260208401935060208301925050600181019050610dcc565b5050509392505050565b600081359050610e128161181a565b92915050565b600081359050610e2781611831565b92915050565b600082601f830112610e3e57600080fd5b8135610e4e848260208601610d97565b91505092915050565b600081519050610e6681611848565b92915050565b600081359050610e7b8161185f565b92915050565b600081519050610e908161185f565b92915050565b600060208284031215610ea857600080fd5b6000610eb684828501610e03565b91505092915050565b600060208284031215610ed157600080fd5b6000610edf84828501610e18565b91505092915050565b600060208284031215610efa57600080fd5b600082013567ffffffffffffffff811115610f1457600080fd5b610f2084828501610e2d565b91505092915050565b600060208284031215610f3b57600080fd5b6000610f4984828501610e57565b91505092915050565b600060208284031215610f6457600080fd5b6000610f7284828501610e81565b91505092915050565b60008060408385031215610f8e57600080fd5b6000610f9c85828601610e6c565b9250506020610fad85828601610e6c565b9150509250929050565b6000610fc38383610fde565b60208301905092915050565b610fd8816115a9565b82525050565b610fe78161154f565b82525050565b610ff68161154f565b82525050565b60006110078261134a565b6110118185611362565b935061101c8361133a565b8060005b8381101561104d5781516110348882610fb7565b975061103f83611355565b925050600181019050611020565b5085935050505092915050565b61106381611573565b82525050565b6000611076601383611373565b9150611081826116d5565b602082019050919050565b6000611099601783611373565b91506110a4826116fe565b602082019050919050565b60006110bc602683611373565b91506110c782611727565b604082019050919050565b60006110df601e83611373565b91506110ea82611776565b602082019050919050565b6000611102601a83611373565b915061110d8261179f565b602082019050919050565b6000611125602083611373565b9150611130826117c8565b602082019050919050565b6000611148601883611373565b9150611153826117f1565b602082019050919050565b6111678161159f565b82525050565b60006020820190506111826000830184610fed565b92915050565b600060408201905061119d6000830185610fcf565b6111aa602083018461115e565b9392505050565b600060208201905081810360008301526111cb8184610ffc565b905092915050565b60006020820190506111e8600083018461105a565b92915050565b6000602082019050818103600083015261120781611069565b9050919050565b600060208201905081810360008301526112278161108c565b9050919050565b60006020820190508181036000830152611247816110af565b9050919050565b60006020820190508181036000830152611267816110d2565b9050919050565b60006020820190508181036000830152611287816110f5565b9050919050565b600060208201905081810360008301526112a781611118565b9050919050565b600060208201905081810360008301526112c78161113b565b9050919050565b60006020820190506112e3600083018461115e565b92915050565b60006112f3611304565b90506112ff82826115df565b919050565b6000604051905090565b600067ffffffffffffffff82111561132957611328611688565b5b602082029050602081019050919050565b6000819050602082019050919050565b600081519050919050565b6000602082019050919050565b600082825260208201905092915050565b600082825260208201905092915050565b6000808291508390505b60018511156113ce578086048111156113aa576113a9611659565b5b60018516156113b95780820291505b80810290506113c7856116c8565b945061138e565b94509492505050565b60006113e28261159f565b91506113ed8361159f565b925061141a7fffffffffffffffffffffffffffffffffffffffffffffffffffffffffffffffff8484611422565b905092915050565b60008261143257600190506114ee565b8161144057600090506114ee565b816001811461145657600281146114605761148f565b60019150506114ee565b60ff84111561147257611471611659565b5b8360020a91508482111561148957611488611659565b5b506114ee565b5060208310610133831016604e8410600b84101617156114c45782820a9050838111156114bf576114be611659565b5b6114ee565b6114d18484846001611384565b925090508184048111156114e8576114e7611659565b5b81810290505b9392505050565b60006115008261159f565b915061150b8361159f565b9250817fffffffffffffffffffffffffffffffffffffffffffffffffffffffffffffffff048311821515161561154457611543611659565b5b828202905092915050565b600061155a8261157f565b9050919050565b600061156c8261157f565b9050919050565b60008115159050919050565b600073ffffffffffffffffffffffffffffffffffffffff82169050919050565b6000819050919050565b60006115b4826115bb565b9050919050565b60006115c6826115cd565b9050919050565b60006115d88261157f565b9050919050565b6115e8826116b7565b810181811067ffffffffffffffff8211171561160757611606611688565b5b80604052505050565b600061161b8261159f565b91507fffffffffffffffffffffffffffffffffffffffffffffffffffffffffffffffff82141561164e5761164d611659565b5b600182019050919050565b7f4e487b7100000000000000000000000000000000000000000000000000000000600052601160045260246000fd5b7f4e487b7100000000000000000000000000000000000000000000000000000000600052604160045260246000fd5b6000601f19601f8301169050919050565b60008160011c9050919050565b7f52756e6e6572204e6f7420566572696669656400000000000000000000000000600082015250565b7f52756e6e657220416c7265616479205665726966696564000000000000000000600082015250565b7f4f776e61626c653a206e6577206f776e657220697320746865207a65726f206160008201527f6464726573730000000000000000000000000000000000000000000000000000602082015250565b7f4e6f2066617563657420746f6b656e7320746f20646973747269627574650000600082015250565b7f4e6f7420566572696669656420746f2052756e20466175636574000000000000600082015250565b7f4f776e61626c653a2063616c6c6572206973206e6f7420746865206f776e6572600082015250565b7f5573657220616c72656164792075736564206661756365740000000000000000600082015250565b6118238161154f565b811461182e57600080fd5b50565b61183a81611561565b811461184557600080fd5b50565b61185181611573565b811461185c57600080fd5b50565b6118688161159f565b811461187357600080fd5b5056fea2646970667358221220176215afbad962efde473b3e7c87c4f6bac29c4fcfe71830c7f22b0d5f8b3ff064736f6c63430008040033",
  "linkReferences": {},
  "deployedLinkReferences": {}
}